:020000040000FA
:10300000781D00206D32000049EF0000773200008B
:1030100000000000000000000000000000000000B0
:103020000000000000000000000000007F320000EF
:103030000000000000000000833200005DCA0000B4
:103040008732000069E80000D9E8000011E90000BB
:1030500081E90000B9E9000029EA0000953200008A
:10306000FD9E0000F5520000F5EB000059ED000058
:103070009F320000DDEE000095EE0000A53200005A
:10308000C9E3000081A00000D5A0000029A1000034
:1030900079A1000099E1000055EB0000B953000050
:1030A00025540000F9530000BB320000BD3200007F
:1030B000BF320000C1320000C332000041F1000005
:1030C000FEFFF0FF00F02CF800F058F81FB51FBD10
:1030D000020001000000E907040E53543132313080
:1030E0003048542D56322E31000000000000000000
:1030F00000000000000000005354313231303048ED
:10310000542D5057522D4F54412D56322E31000020
:1031100000000000000000000000000000000000AF
:103120000CA030C8083824182D18A246671EAB46DC
:1031300054465D46AC4201D100F020F87E460F3E79
:103140000FCCB6460126334200D0FB1AA246AB464E
:103150003343184734C8000054C80000002300243B
:1031600000250026103A01D378C1FBD8520700D3BE
:1031700030C100D50B60704710B510BD00F0A7FF3F
:103180001146FFF7A3FF0BF0B1FC00F017F803B4F2
:10319000FFF7F2FF03BC0AF0D9FF70477047704792
:1031A000004870471818002010B500200249029A04
:1031B00000F0ACFF10BD00000000F87F10B5044621
:1031C000C046C0462046FFF7E2FF10BD704770477B
:1031D000010000C04241543332473133374748344D
:1031E00038000000010001000000E90704020000AF
:1031F00000000000000000000000000000000000CF
:1032000000000000000000000000000000000000BE
:1032100000000000000000000000000000000000AE
:10322000000000000000000000000000000000009E
:103230000000000070B505460C46164602E00FCCB3
:103240000FC5103E102EFAD2082E02D303CC03C5B0
:10325000083E042E07D301CC01C5361F03E02178B8
:103260002970641C6D1C761EF9D270BD1948804708
:1032700019480047FEE7FEE7FEE7FEE7FEE7FEE748
:10328000FEE7FEE7FEE7FEE7FEE7FEE7FEE7FEE716
:10329000FEE7FEE7FEE7FEE7FEE7FEE7FEE7FEE706
:1032A000FEE7FEE7FEE7FEE7FEE7FEE7FEE7FEE7F6
:1032B000FEE7FEE7FEE7FEE7FEE7FEE7FEE7FEE7E6
:1032C000FEE7FEE7FEE7000004480549054A064B15
:1032D0007047000061CA0000C53000007818002067
:1032E000781D00207819002078190020034610B5B9
:1032F0000B439B070FD1042A0DD308C810C9121F16
:10330000A342F8D018BA21BA884201D9012010BDD1
:103310000020C04310BD002A03D0D30703D0521CA5
:1033200007E0002010BD03780C78401C491C1B1BD3
:1033300007D103780C78401C491C1B1B01D1921E3D
:10334000F1D1184610BDF8B5042A2CD3830712D04A
:103350000B78491C0370401C521E83070BD00B785E
:10336000491C0370401C521E830704D00B78491C73
:103370000370401C521E8B079B0F05D0C91ADF003B
:103380002023DE1B08C90AE0FFF754FFF8BD1D46E5
:1033900008C9FD401C46B4402C4310C0121F042A2B
:1033A000F5D2F308C91A521EF0D40B78491C0370E9
:1033B000401C521EEAD40B78491C0370401C012AA1
:1033C000E4D409780170F8BD01E004C0091F0429A4
:1033D000FBD28B0701D50280801CC90700D0027088
:1033E000704700290BD0C30702D00270401C491E51
:1033F000022904D3830702D50280801C891EE3E7DB
:103400000022EEE70022DFE7002203098B422CD3E3
:10341000030A8B4211D300239C464EE003460B4324
:103420003CD4002243088B4231D303098B421CD386
:10343000030A8B4201D394463FE0C3098B4201D378
:10344000CB01C01A524183098B4201D38B01C01AB0
:10345000524143098B4201D34B01C01A5241030927
:103460008B4201D30B01C01A5241C3088B4201D3D6
:10347000CB00C01A524183088B4201D38B00C01A83
:10348000524143088B4201D34B00C01A5241411AAA
:1034900000D201465241104670475DE0CA0F00D08D
:1034A0004942031000D34042534000229C46030986
:1034B0008B422DD3030A8B4212D3FC22890112BA0C
:1034C000030A8B420CD3890192118B4208D38901E4
:1034D00092118B4204D389013AD0921100E08909FC
:1034E000C3098B4201D3CB01C01A524183098B42DD
:1034F00001D38B01C01A524143098B4201D34B01C6
:10350000C01A524103098B4201D30B01C01A524128
:10351000C3088B4201D3CB00C01A524183088B42AF
:1035200001D38B00C01A5241D9D243088B4201D338
:103530004B00C01A5241411A00D201466346524123
:103540005B10104601D34042002B00D54942704722
:1035500063465B1000D3404201B50020C046C04620
:1035600002BD0000F0B50C46871A9C410D46861A34
:103570009D4103D2C01BA141D21963410D0D1F0D06
:10358000C94EEC1BAE435CD07F057F0D0026002F9B
:1035900051D02D05AC46A943DD020123ED0A1B05E0
:1035A0001D4320231B1B24D41746E74038187141C4
:1035B0002F46E740CC199D402818314661410C0D3B
:1035C00027D161449A4013D50023401C5941520031
:1035D0000ED14008400001224B005205D34207D3D0
:1035E00005204007C14201D5B04900E0B04930464E
:1035F000F0BD6B00002A00D001229A181F23203C46
:103600001B1B01D5002302E0E540281871410C0D79
:10361000D7D0012424050919C407CD07400849085B
:10362000E40F28436144002CD5D00024401C6141A4
:103630009A40D0D1CDE76A05520DD9D1C90FC9073B
:10364000D5E79C4D4E00002801D0012400E0002465
:1036500034195F00002A01D0012600E00026BE19BF
:10366000954FAC420CD8AE420AD8B44206D00125E0
:103670006D05EC42BCD010461946F0BD9942FCD015
:1036800000203946F0BDF0B51FB40C460F46811A34
:103690009F412546861A9D4106D20125ED076F40C0
:1036A000401ABC4152187B41210D1E0D8D1BAC46AA
:1036B0007D4D8D437ED075056D0D7CD00D05AE46DC
:1036C000AC431B031B0B794D52429D4120236646A0
:1036D0009B1B14D31746F7403818002600907441FE
:1036E00060462F460741E41900989D40281866411E
:1036F00016D4714671189A4025D5012320E09318FD
:103700002A466A415200002B00D0521C1E23203E44
:103710009B1B002B61DD3541EE1728186641E8D56B
:10372000001876415B1C9A4000D3401C4B05F318EF
:103730001524E34010D3002B52D071467118D30FDB
:10374000C01802D3491C05B0F0BD0123DB079A4223
:10375000F9D140084000F6E701225205B21801D124
:10376000002853D00123CC0ADB029943891E002A8A
:1037700008D1020C03D0020C0004103902E002460A
:10378000002020390023550B05D112020823550BC8
:1037900001D152010D23550C01D112011B1DD50C75
:1037A00001D192009B1C150D01D152005B1C2025FC
:1037B000EE1A01E02CE022E00546F5401543984062
:1037C000CA1AE10769181305C918002ABBDA0320D1
:1037D00040070818C10FC9070FE071466118B2E72A
:1037E000F10740080843711071444A000CD00123CE
:1037F0005B059A42A7D2C90FC9070020A3E7490574
:10380000490D26D1002001E00028F4D100219AE7DB
:10381000284D6600002801D0012100E00021711828
:103820005F00002A01D0012600E00026BE19224FC9
:10383000A94210D8AE420ED8B14208D001256D057C
:10384000E94206D01946A802414010467BE79C4257
:1038500001D0214677E70020394674E710B50C46C1
:103860005C4005D50124E4076340FFF70CFF10BD61
:10387000FFF778FE10BD30B40C465C4004D501243F
:10388000E407634030BC6DE630BCFCE670B5012453
:10389000E40761400D465D4002D4FFF763FE70BD52
:1038A0006340FFF7F0FE70BDFF0700000000F0FF6F
:1038B0000000F07F0000E0FF0000F87FF0B5F94D58
:1038C0000C091E092C402E402F468BB0A7437DD0FB
:1038D000B543FCD0002E7AD0002CFCD00D465D40C4
:1038E000ED0F2543AC1BFF25AD0464190894C502F8
:1038F000440DC9022143500DDC0204430120C007DE
:1039000001430443D2020191200C110C00958C4616
:10391000010423468B430A9161460904E24D8A4320
:103920000991010A7D4449198039097805464D43BA
:1039300001266D18F605751B6943C90C640B891CBB
:103940004C436418B5012C1B250C2E04B4434C4386
:103950004D43210C691889090591009DE90701D0A3
:103960000121C90704912C4601996708CD072F430F
:103970004C08059DE10B4D432D0C294666467543C9
:1039800002950D4645432E46029D7D1BB441009590
:103990000D465D4301942C0C2F040D465543AE4655
:1039A0002D0C3D43029503947546049C2D04641B25
:1039B000049406D2029C039D641C00267541039565
:1039C000029401AC70CC009F7D1B01E03EE162E1FE
:1039D000B44109040095079101940599A408614335
:1039E000090C0C464443650BE7040C4666467443D9
:1039F000A646640B3C43039502947446049DE4047C
:103A00002C1B049406D2029C039D641C0026754165
:103A10000395029401AC70CC009F7D1BB4410194CE
:103A20000C465C430095650FE7000C465443A646E0
:103A3000640F3C43039502947446049DE4002C1BE0
:103A4000049406D2029C039D641C002675410395D4
:103A5000029401AC70CC009F7D1BB441AE09AF064F
:103A6000049DC900AD092F43049DA406AD0604952D
:103A7000079D344369180791059DE10B4D432D0CBB
:103A800029466646754302950D4645432E46029DDE
:103A90007D1BB44100950D465D4301942C0C2F0411
:103AA0000D465543AE462D0C3D4302950394754695
:103AB000049C2D04641B049406D2029C039D641C88
:103AC000002675410395029401AC70CC009F7D1BCC
:103AD000B44101948C050694079C890A61180095ED
:103AE0000791019C0599A4086143090C0D464543C3
:103AF000680BEF040D46644665436C0B3C43049F22
:103B0000ED047D1BAC4602D20025641C6841009E7A
:103B1000019D371B85410846584301950C46460FC9
:103B2000C5005443600F28436546E4002C1B02D2B5
:103B30000025401C6E41019D3F1AB5412846BD0934
:103B4000800628438446A009BF064E020699A406B3
:103B500076180743079D002068410A99079019438A
:103B60000020099B00906046FF1913434041E20F7B
:103B700064003A43A4460446D71A8C41A04203D9B4
:103B80000120009020463A46C70F941840416246F3
:103B9000D20F2243644664000494009CBE46640035
:103BA000D71AA446044602978C417746002F01D1CC
:103BB000A04204D96046401C8446029A2046C40FA5
:103BC000A64694184041049A0546D20F2243644603
:103BD0006400D31A8D417146002901D1A84202D94F
:103BE00028461A46641C10430122002800D01643C0
:103BF00061020020079B891904465C410223002CC6
:103C000002DB491813466441089DCE0A2D145D1944
:103C10004B056705E10A2C050D1908993E43C907B4
:103C20006940002B08D0934006D30022761C5141F6
:103C3000002B01D1760876001C4A002D43DB15428B
:103C400041D0AA433FD030460BB0F0BD06180D4618
:103C50004D41174C7642AC411AD395181C465C4135
:103C6000134A6D42A24113D3012252054C00D442A3
:103C70000AD15C00D4420BD04B4002D592021143D2
:103C8000E2E749004908DFE75940C90FC90718E0D2
:103C900000200849D8E7054801420DD10342F7D07A
:103CA000F2E700000000FF07DEBF00000000F07F29
:103CB0000000E0FF0000F87F114859400143C012A6
:103CC00041400020C0E70123089A9B069A4205DC88
:103CD000032252078918C90FC907B5E70522520701
:103CE0008918074A1143D2125140ADE770B5154605
:103CF0001C4602460B4628462146FFF7DFFD70BDF5
:103D0000FFFFFF7F30B50346CA02400D1043164D3A
:103D1000164C0A1502D02043002A06DBAA1A002AF4
:103D200012DDD040FF2A0BDC30BD5205520D01D10F
:103D300040004008AA1A07D4D0404042FF2A01DDC3
:103D4000002030BD0028FCDD4A00002B01D00120FE
:103D500000E00020101801225205D042F0D8C81708
:103D6000C043604030BD00001E0400000000008021
:103D70001F22030C02D10F22000402D0030E03D035
:103D800004E00020014670470002083A030F01D109
:103D90000001121F830F01D18000921E002801DB59
:103DA0004000521E120551184205C012411810461B
:103DB0007047C10FC90700D040420122920711434A
:103DC000D6E701218907D3E7F0B58B4C0F092546CB
:103DD00089B0BD437BD01D092646AE43FAD00E46BE
:103DE0005E402740F60F3E43254071D0240121421A
:103DF000FBD0FF24AD19A4042D1B039501252D052F
:103E0000DB02DB0AC9022B43C90A29431E0109014F
:103E1000040F130F050121431701880B82039143FF
:103E20002D098C46A90B1E438A039543B30B9A03B5
:103E300096433F09BA0B9403A74302962E467E434E
:103E40000497B6464E19D7190C4601965443059768
:103E50007E43371B7646BF1B3601B646BE0B36196E
:103E600000967646BC043719009C01D3641C00946C
:103E70006400002F01D001263443029E049F754345
:103E800066467E430496760034196E003419009419
:103E9000029C019E1C196643751BAE46069465463E
:103EA0004519059C05956C43594375460891691A57
:103EB0000191049E01465143A41B0491611A009C88
:103EC0000791E10605D061090122114302E072E089
:103ED0006EE06109089D00272C0A2D066918049DD3
:103EE0007C412A0A2D066918019D6241AC0DAD0284
:103EF0006D185441079A910D920255196141029A29
:103F0000644658435443069B059A5A43121A131B9E
:103F10009A0E9B015B187A41010B0005C3185141B1
:103F2000220A200644195A419A4200D2491C012013
:103F30004002814203D315230226F64302E01423F4
:103F40000326F6432020C51AA9401746AF40DA40A1
:103F50000A4320460399D8400914731819055118CB
:103F6000039A3843D2075140AC4009D00122944013
:103F700006D30022401C5141002C01D140084000D2
:103F80001E4A934212D3012203989206904207DB05
:103F90000520400709181A480143C012414004E0B7
:103FA000032040070818C10FC907002009B0F0BD61
:103FB0000020F107FAE705180C464C4111486D4204
:103FC000A04115D394181A465A410E4864429041B4
:103FD0000ED301204A004005824209D35A00824292
:103FE00006D35940C90F084AC90700201143DDE72D
:103FF00000200649DAE700000000FF07FE07000086
:10400000FFFFFF7F0000E0FF0000F07F0000F87F6F
:10401000F8B5224C4E00069DA6420AD8A64201D110
:10402000002806D15E00A64203D8A6420AD1002A83
:1040300008D00D24240425422CD02946002000F06D
:104040002FF8F8BD0C461C430CD4994202D0EFF374
:104050000080F8BD904202D0EFF30080F8BDEFF38E
:104060000080F8BD09242407E5008B4206D0EFF359
:104070000080A043591A06D2284304E0101A05D341
:10408000EFF30080A04380F30088F8BDEFF30080D9
:10409000A043F1E70095FFF787F8F8BD0000E0FFC7
:1040A000C80212D54803400F002804D0C803C043FB
:1040B000012188407047EFF30080000100090321CF
:1040C0000907084380F30088704700207047754651
:1040D000FFF766F8AE46050069465346C008C000C3
:1040E000854618B020B5FFF7EFF860BC00274908F7
:1040F000B6460026C0C5C0C5C0C5C0C5C0C5C0C580
:10410000C0C5C0C5403D49008D46704710B50C463E
:104110001107090F092904D00A290AD008290CD14E
:1041200004E011460820FFF7BBFF06E0510606D564
:1041300001E0510601D50120C007214610BDD1067E
:1041400007D501010909CC084907000E0006044300
:1041500009E0410F20024907000A0143200E000632
:104160001D22D14101430846E7E770B58C18057858
:10417000401C6B075B0F01D10378401C2A1106D14C
:104180000278401C03E00678401C0E70491C5B1E40
:10419000F9D12B0705D40023521E0DD40B70491CF6
:1041A000FAE70378401CCB1A921C03E01D780D70CF
:1041B000491C5B1C521EF9D5A142D8D3002070BD0A
:1041C00010B500F055F810BDF8B505460E4614467A
:1041D0000020009001211A4801751A480078884390
:1041E00018490870082088700020887108460078F7
:1041F000012108431349087008460572002717E09B
:1042000010480078802108430E49087000BF0E480E
:10421000007D0028FBD000200B4908750948C089A3
:104220002080A41C0748C1890098081800907F1CB2
:10423000B742E5D331460098FFF7E6F880B2F8BD03
:1042400040610040005004404060004030B589B0FB
:1042500004460025202101A8FFF7D4F801AA08216F
:104260002046FFF7B1FF0546284609B030BD0000E3
:1042700010B501211C4801751C4800782021084315
:104280001A49087000201A4908701A490875152043
:1042900009F038FF00BF18488078402108431649CC
:1042A000887008468078012108431349887000BF50
:1042B00028200F4908700020887008468078887090
:1042C0000846807808210843094988700020087151
:1042D0008871FF20C872002088720846007801218A
:1042E00008430349087010BD4061004020040240AB
:1042F00000500440406000406000044072B600215D
:10430000086880F3088800BF4868804700BFFEE760
:1043100078B50546002000900026002408E0281902
:10432000552105F038FCE10088408619601CC4B2B4
:10433000042CF4DB304678BD70B505460E460024EB
:1043400009E0E3002A46DA40D1B23019552205F0DF
:104350003DFC601CC4B2042CF3DB70BD10B50446F8
:1043600000BF00BF0620FFF771FF074908800988DA
:10437000064A128851434A018918080B0A21FFF79F
:1043800043F80349086010BD540800209C06002033
:10439000BC040020FFB581B004460D4600270097FD
:1043A000002660780002A778C119277900970020BD
:1043B00018706079552802D1A079AA2802D005206A
:1043C00005B0F0BD012203E0A05C8019C6B2521C0A
:1043D000C81C8242F8D368460078802738400028FD
:1043E00002D00420187004E0081D854201D002208C
:1043F000187068460078772807D0684600787828D3
:1044000003D0082D01D002201870C81C205CB042D7
:1044100001D006201870081F039F38606846007896
:10442000CEE701460A78302A06DB0A78392A03DC0F
:104430000A78303AD0B200E0002070473CB502461E
:104440000B460020002400940194002129E01478F8
:10445000302C07DB1478392C04DC1478303C6D46A2
:104460006C5414E01478412C07DB1478462C04DCDF
:104470001478373C6D466C5409E01478612C06DBE7
:104480001478662C03DC1478573C6D466C546C46EB
:10449000645C5D1E6D1AAD00AC402043521C4C1C88
:1044A000E1B29942D3DB3CBD1CB50120022164235B
:1044B0000022009101901146594807F021F801208F
:1044C000022164230022009101901146554807F013
:1044D00017F8012002216423002200910190114667
:1044E000514807F00DF801200221FF232D3300224F
:1044F0000091019011464D4807F002F80120022179
:10450000FF232D330022009101901146484806F008
:10451000F7FF01200221FF232D330022009101909B
:104520001146444806F0ECFF0120022164230022DA
:10453000009101901146404806F0E2FF012002215F
:10454000642300220091019011463C4806F0D8FFF8
:104550000120022164230022009101901146384875
:1045600006F0CEFF01200221642300220091019079
:104570001146344806F0C4FF0120022164230022C2
:10458000009101901146304806F0BAFF0120022147
:10459000642300220091019011462C4806F0B0FFE0
:1045A0000120022164230022009101901146284835
:1045B00006F0A6FF01200221FF23F533002200911F
:1045C00001901146234806F09BFF0120022164233D
:1045D00000220091019011461F4806F091FF012032
:1045E0000221642300220091019011461B4806F02D
:1045F00087FF012002217D23DB0000220091019032
:104600001146174806F07CFF01200221154B0022BD
:10461000009101901146144806F072FF1CBD000085
:10462000F9BD00005D43000085780000A1DD0000B9
:1046300099CF0000C9630000496B00000D710000B4
:1046400059950000F95D0000056900006D46000005
:10465000BD97000021A8000091AA000029D6000003
:1046600001D7000060EA00005DD60000F8B50746FB
:10467000002500266A48007800280BD16948C07CD4
:104680008007C00F002805D16648C07C8006000F57
:10469000002800D1F8BD6448C06C002810D06348E1
:1046A0000068401C6149086061490968614A5143DA
:1046B000884208D900205D4908605B49C86402E06F
:1046C00000205A4908605848806C00280AD0002011
:1046D0005549C864C96C88B207F0A4FB564800214C
:1046E0000160D7E750484030008A02286AD04E481F
:1046F000C06C002845D1514800885149884240DBB0
:1047000000242AE0610048480830415A4B4800889C
:10471000323081421CDD4848015D005D401C464A44
:104720001055142917DD0020114608553E48C06C6D
:104730000121A14008433C49C8642046E10F091803
:1047400049104900611A01D1012604E0012502E067
:10475000002039490855601CC4B2042CD2DB324811
:10476000C06C002802D0344800210160002E05D022
:10477000002D03D002202E49086002E001202C49C0
:10478000086030480078002807D12748C06C00280E
:1047900023D001202B4908701FE02A480078012807
:1047A0001BD129480078012817D11F484030008AC2
:1047B000012812D100201C49C864224908702249EE
:1047C00008700AE018484030008A022805D11D48C8
:1047D0000078012801D11C4908701348C06C0028DA
:1047E00016D0002412E061000F480830405A1749E3
:1047F000884209DC0C48C06C0121A14088430A4969
:10480000C86400200C490855601CC4B2042CEADBC3
:104810000549C96C88B207F005FB00BF3AE7000004
:1048200023030020E0100020BC04002034040020FA
:104830004004002020BF0200380400203C0000207B
:10484000E40C00003C0400203D040020B80B0000F4
:10485000F0B58BB00020099008900790069000BF3B
:1048600000BF00BFB048007800282BD007F06EFED4
:104870000646FFF79EFA04460D46AC4801780078DC
:10488000401CAA4A107004290FDAA9480068FFF7F3
:1048900090FA064622462B46FEF7E0FF059104906B
:1048A000FFF730FAA249086028E0A14800688010AC
:1048B000A049086000209D4908709D4908609A49F8
:1048C00008701BE09C490020085E0921C94388420A
:1048D0000ADA07F03BFE97490968461A3046FFF7A7
:1048E00068FA04460D4609E007F030FE9149096870
:1048F000461A3046FFF75DFA04460D46002213467D
:10490000204629460AF0EEFC6AD200228B4B204654
:1049100029460AF0B5FC1ED289493620085EFFF709
:1049200048FA059104908649888EFFF74AFA0646B0
:1049300022462B46FFF748FA0022804B0191009057
:10494000FEF7BCFF03910290059B049AFEF786FFD9
:1049500004460D46AEE000227A4B204629460AF076
:104960008FFC1ED276492E20085EFFF722FA0591B1
:1049700004907349888DFFF724FA064622462B4699
:10498000FFF722FA00226D4B01910090FEF796FF8F
:1049900003910290059B049AFEF760FF04460D46C2
:1049A00088E067492620085EFFF703FA0591049026
:1049B0006349888CFFF705FA22462B460191009047
:1049C000FFF702FA064600225C4BFEF777FF0391E1
:1049D0000290059B049AFEF741FF04460D4669E0EC
:1049E0000022594B204629460AF07CFC1ED254492D
:1049F0003A20085EFFF7DDF9059104905049088FD1
:104A0000FFF7DFF9064622462B46FFF7DDF90022C5
:104A10004A4B01910090FEF751FF03910290059BD4
:104A2000049AFEF71BFF04460D4643E00022474B65
:104A3000204629460AF056FC1ED241493220085E23
:104A4000FFF7B7F9059104903D49088EFFF7B9F9D2
:104A5000064622462B46FFF7B7F90022374B019155
:104A60000090FEF72BFF03910290059B049AFEF73E
:104A7000F5FE04460D461DE031492A20085EFFF789
:104A800098F9059104902E49088DFFF79AF906468A
:104A900022462B46FFF798F90022284B01910090FF
:104AA000FEF70CFF03910290059B049AFEF7D6FED9
:104AB00004460D460022264B204629460AF0E0FB1C
:104AC0000AD20022234B204629460AF00BFC03D2CF
:104AD00000202149086005E020462946FFF712F929
:104AE0001D4908601C4800681C4988621C48017800
:104AF0000078401C1A4A10700A2907DA1748806AA1
:104B0000184909684018174908600BE00A21154840
:104B10000068FEF783FC1449086000201049087003
:104B2000104908600BB0F0BD3C0300206504002074
:104B30006C04002068040020440000200088C3406A
:104B40009C06002080841E410088C3C080841EC152
:104B500000408F4000408FC088030020BC0400202C
:104B60006404002060040020800300200FB50021B1
:104B7000009101910291039100200DE04200204933
:104B8000895A204A8A1A2049095651180AB2430004
:104B90001E49CA52411CC8B20228EFDB1B4A2C3AFC
:104BA0002C21515E1A4A11801A4A11800021184A9C
:104BB0009170184A917001201FE0164900228A5E08
:104BC00043001249C95E8A4206DA42000F49895AF7
:104BD000104A1180114688700D4900228A5E4300F8
:104BE0000A49C95E8A4206DD42000849895A084AD4
:104BF000118011468870411CC8B20128DDDB0FBD51
:104C0000D806002010270000EA100020E804002049
:104C100044000020400000203EB500250020009008
:104C200001900290002411E061003648405A364954
:104C3000401A6100354A515A401881B26200344826
:104C400081526100405A4519601CC4B2042CEBDB50
:104C50002C48001F40882C49401A40192C4908391B
:104C60004860084600892B4908802B4908800020AD
:104C7000284988702849887001241DE02648018849
:104C800062002348805A814206DA61002048405A77
:104C900021490880084684701E48018862001C482B
:104CA000805A814206DD61001948405A194908803E
:104CB00008468470601CC4B2042CDFDB17480078FF
:104CC00006280CDA1348008815490988401800B2F4
:104CD0001349088011480078401C104908700F489B
:104CE000007806280CD106210D4A0020105EFEF740
:104CF00095FB0C4908800020084908700849088085
:104D00003EBD0000A006002010270000F410002087
:104D1000C40400203C000020380000207204002061
:104D20007004002084030020FFB585B005460F46BF
:104D30001C460020049003900026FB490880207048
:104D40000798772873D00EDC722869D006DC00281B
:104D50006ED016280FD071286BD12AE0752870D03C
:104D60007628F9D167E07838030009F0BDF906FB31
:104D7000FAF9F896F762ED480390ED480078C0071D
:104D8000C00F002812D0552001F06CFD01280AD177
:104D90005022E8480399FEF7D6FA5020E2490880ED
:104DA0000020207004E02320207001E026202070E5
:104DB00044E209F0A7FA02900020C04301900C21C0
:104DC000D02004F053FC0C21D84804F04FFC0C21F7
:104DD000D94804F04BFC0C21D84804F047FC0F21C3
:104DE000D74804F043FC0121D14804F03FFC0421E2
:104DF00002A804F03BFC0421D24800F021FCD14978
:104E00001239098A884204D0042101A804F02EFC3A
:104E100003E00421CB4804F029FC002020700DE2BF
:104E20005021D02004F022FC0020207006E265E032
:104E3000B6E1FDE105E00A2006F0AAFF002020709F
:104E4000FCE10120BB490870B7480088401CB64906
:104E50000880BD4800880005000DBC49884202D08A
:104E600020202070EAE1692004F0D2FD002802D160
:104E700028202070E2E12320C002B54908600B2001
:104E800006F086FFB348B44908600120B3490860C2
:104E90000020A84908702070D0E10120A5490870C1
:104EA000A1480088401CA0490880A7480088A7495D
:104EB0002231884202D020202070BFE15A2004F025
:104EC000A7FD002802D128202070B7E1012040046E
:104ED0009F4908600C2006F05BFFA1489E490860CE
:104EE00001209E4908600020924908708E48008881
:104EF000401C8D490880002020709FE100208D49D2
:104F000008704870022088490880934800689149D9
:104F1000884207D0904800689149884202D02020FA
:104F200020708BE1FF207930874202D00220207070
:104F300084E18A480068012805D1A878E978090247
:104F4000401888490860A878E9780902401885491E
:104F50000968884207D0212020706FE14AE113E1FF
:104F60000EE120E178E02878697809024018049081
:104F70007A4904980968884244D078480068401EFD
:104F8000049988423BD1724A126852095201704B0F
:104F90001B689A1A01235B02991A6D4A126810461F
:104FA000FF38753804F062FD012802D00720207018
:104FB00044E1674800684009400165490968081AEA
:104FC0000121490288420ED961490968FF317531D2
:104FD000480940010121490204F048FD012802D09E
:104FE000072020702AE15A480068FF387538584970
:104FF00008605A480068401E5849086002E02120B5
:1050000020701BE158480378FF227532291D504853
:10501000006804F0C3FD00281BD0504800784549C3
:1050200008704E480068FF2109020840000A414903
:10503000487047480068FF30753045490860474868
:105040000068401C4549086000203F4908802070E6
:1050500001E007202070F1E0002603E0A85D35495B
:105060008855761C022EF9DB2878697809024018E9
:105070003E490860384800683649884227D169228D
:105080003A4801683748006801F020FC00203549A3
:1050900008600421364804F0E9FC692001F0E2FBD5
:1050A00001280CD1002020703149324809F03AFF24
:1050B00031482949086000202349088033E02C4901
:1050C0000020C04309F02EFF232020702BE022484F
:1050D0000068234988421AD15A222448016821488D
:1050E000006801F0F3FB00201E4908605A2001F01F
:1050F000B9FB012808D1002020701F48164908601C
:105100000020114908800EE0232020700BE0124897
:1051100000681949884204D00F480068174988423E
:1051200001D12720207089E058000020D0300000F5
:10513000940000205C0A0020D0180100D00002007A
:1051400024F400009203500096000020AA0A0000F8
:1051500088000020AA55AA555C0000208C00002081
:10516000AA5A550A800000209800002084000020E0
:105170008C2E00009966A55A55555A5AAAAA5A0A61
:105180000020207005F0F8F909F0BCF803210903AC
:10519000884202D20020207001E0072020704DE0FC
:1051A000042020704AE02878000669780904401835
:1051B000A97809024018E97840182249086028793E
:1051C0000006697909044018A97909024018E979AB
:1051D00040181D4908600846008882B21B480378C1
:1051E0001B491848006804F0C5FC17480088194995
:1051F000088023E055210120400404F0CCFC401C31
:10520000002802D12520207018E00421124804F063
:105210002DFC5A2001F026FB012806D10E490F482B
:1052200009F080FE0020207001E02320207005E0BE
:105230000020084908800420207000BF00BF09B08A
:10524000F0BD00007C0000207800002098000020C5
:105250005C0A0020580000200C2F00005A5A69698F
:1052600010B50E4909681822514308460721FEF778
:10527000CBF804460A49FEF7C7F840000949086020
:10528000094801F065F8012806D108480078042192
:105290008843001D0549087010BD0000B8040020B7
:1052A00040420F007000002000E602009400002041
:1052B00070B502460B46194618E0002012E0450082
:1052C000565B451C6D00555BAE4209DD4500545BE5
:1052D000451C6D00555B46009553451C6D005453AD
:1052E000451CE8B24D1E8542E9DCE9B20129E4DC47
:1052F00070BD000010B50021064841700648008BC3
:105300001C210840002804D01C2003490883FDF715
:105310005DFF10BD2460004040540440F0B5002102
:105320000023224D2C88E507ED0F002D02D001252A
:105330001E4E358034E02505290F0D011B4EA03689
:10534000AA190425D58195892D045689354314263B
:105350004E43174FF6197560167A14254D43ED1913
:105360002E721046002308E0C65C14254D43104FF2
:10537000ED190935EE545D1CEBB214254D430C4E6E
:10538000AD192D7A9D42EFDC012614254D43084FBF
:105390007E55084D2D686D1C064E3560034D2C88DA
:1053A00002252540002DC6D0F0BD00006054044009
:1053B000700B0020BC00002010B50D48007F0028B5
:1053C00001D009F069FB0A481C30407800280ED053
:1053D000002107481C3041700648008B022108401C
:1053E000002804D0022003490883FFF797FF10BD6F
:1053F000406000404054044010B500210648417010
:105400000648008BC007C00F002804D001200349C4
:105410000883FDF7DCFE10BD64600040405404408A
:105420007047000010B50021064841700648008B07
:1054300020210840002804D0202003490883FFF7DA
:10544000EFFF10BD60600040405404400146002959
:1054500002D10022074B1A71012902D11022054BFB
:105460001A71022902D14022024B1A71014A1079A5
:10547000704700000004024000B5C32292019178F9
:10548000F82211401B4A127811431B48EA2923D005
:105490000ADC0A46E03A130008F026FE0A181C202F
:1054A000242A2A2A2A161A2AED291FD004DCEB29DD
:1054B00016D0EC291CD117E0F02903D0F82917D118
:1054C0000E4815E00E4813E00C4811E00D480FE0BF
:1054D0000D480DE00D480BE00D4809E00D4807E0D0
:1054E0000D4805E00D4803E00D4801E0024800BF0B
:1054F00000BF00BD201C024040420F000048E801F0
:10550000006CDC0200366E010024F400001BB700C2
:1055100000127A00808D5B0000093D00C0C62D009E
:1055200080841E0070B50B460021002800D100BF0A
:10553000012802D140251D432943022801D1C0255D
:105540002943094D29706D788026B543064E757044
:10555000012808D1FF2200BF034DAC782546154035
:105560002C469442F8D170BD0004024078B5024642
:105570000020002A00D100BF002900D100BF012A6D
:1055800001D141252843012901D112252843022AAE
:1055900001D1C0252843022901D130252843134DCC
:1055A00028706D788026B543104E7570012A08D199
:1055B000002300BF0D4DAC7825461D402C469C4273
:1055C000F8D10A4D6D784026B543084E7570012913
:1055D0000BD10025009503E000BF009D6D1C0095D8
:1055E000FF266936009DB542F6D978BD0004024019
:1055F00070B503460C4600201CE0802117E0802592
:105600000540002D05D04506280E05465540284684
:1056100001E04506280E1D780D40002D02D00546FC
:10562000554028460D46CE0F7619F605310E002955
:10563000E5D15B1C2546661EF4B2002DDDD170BDA0
:1056400030B50246002015E01578521C2C0260404F
:10565000082300BF0124E4030440002C04D04400CC
:10566000064D6C40A0B201E04404200C5C1EE4B284
:10567000231EEFD14C1E211EE6DA30BD21100000A2
:1056800010B5024600200E4B1B68934202D2272021
:10569000C04314E00B4B1B69934201D97D200EE0FF
:1056A000002109E08B00064CE358934203D80B46D7
:1056B000283B18B202E0491CA529F3DB00BF10BD4E
:1056C000E0F4000060F70000F8B50446002600276B
:1056D00000BF61490968E1221201514308467D215A
:1056E000C900FDF79BFE0546002C29D100205B492F
:1056F00008705B480078022803D15A485A4908606C
:1057000006E057480078012802D1584856490860F9
:1057100057480088002803D156480088544908801B
:10572000514801685248008800F052FB06464A483A
:10573000016830464843242148434F49086008E047
:10574000022C06D10220454908704C4800684A499D
:105750000860494800684A490968401A4949086090
:10576000002C4FD1142068430968884203DA0120D5
:10577000454908700FE01320C04368434149096858
:10578000884203DD02204049087004E000203D49C2
:1057900008603D4908703C48007800285BD024210F
:1057A00035480068FDF73AFE00902B4801680098E4
:1057B000FDF72AFE0746002F0ED0052F0CD85A20E1
:1057C0003249087032483349088001203249087054
:1057D0003248334908803EE00F2F09D250202B4930
:1057E00008702B482B4908802C482D49088032E04E
:1057F0004620264908702648264908802748284917
:10580000088028E0022C26D10A2068431D49096837
:10581000884203DA01201C4908700FE00920C043C8
:10582000684318490968884203DD02201649087058
:1058300004E00020134908601349087012480078FA
:10584000002808D05A2011490870114811490880D1
:10585000012011490870F8BD140000200803002041
:10586000E7020020A8F40000EC03002070F4000020
:10587000D20200203C000020000300200C03002086
:10588000F00200200403002010030020D4020020B6
:1058900060270000DC020020DE020020C0A800001B
:1058A000E0020020FEB50027002500200190002620
:1058B0000024009076480078002800D1FEBD75488D
:1058C000806A002802DB7348876A02E07148806AB8
:1058D0004742002F01D1502604E003213846FDF74E
:1058E00093FD06466A48007802287DD16948806A9F
:1058F000002801DD35467FE06648806A66498842B7
:1059000038DD6648006866490968441865480068DB
:10591000C100401824214843A04202D2092000902F
:1059200011E0604800688100401824214843A042EB
:1059300002D20520009006E0002024214843A04226
:1059400001D20020009057490968009A514324224F
:105950005143601A7D21C900FDF756FD0190504862
:10596000019900684042FDF74FFD0546B54243DA14
:10597000354641E04748806A474248480068484900
:105980000968441847480068C1004018242148436A
:10599000A04202D20920009011E042480068810034
:1059A000401824214843A04202D20520009006E07E
:1059B000002024214843A04201D200200090394910
:1059C0000968009A514324225143601A3946FDF771
:1059D0001BFD01903248019900684042FDF714FD1B
:1059E0000546B54208DA00E001E0354604E0284803
:1059F0000078012800D1354625480078022813D1C7
:105A000026480068401B2549086025480068401961
:105A10002349086008460068002837DB00201C493D
:105A200008701F49086031E01948007801282DD11D
:105A30001848806A002829D01648806A002812DA9F
:105A400019490968E1221201514308466421FDF712
:105A5000DBFC12490968884205D911480068C01B5F
:105A60000F49086009E00D48006840190B490860BB
:105A70000B480068401B0A49086009480068002874
:105A800004DC0020024908700549086000BF15E7E2
:105A900010030020BC04002048F4FFFFF0020020A7
:105AA0000403002014000020F802002070B5002636
:105AB00000250024594800F027F900F0C9F8002813
:105AC00002D15749088070BD564800687D21C90041
:105AD00088426EDA534800684942884269DD52487C
:105AE00000884E4909888842F3DA00204F4908703F
:105AF0004F4800684F49096888420CD94C480088D3
:105B00004C490988401A4C498988484344490988C6
:105B100040184349088046480068464908604048A4
:105B20000088E1210901884256DD444800780328B5
:105B30000CDA43480088414909784900414A5052EB
:105B40003E480078401C3D49087045E000203B4934
:105B5000087003213B48FFF7ABFB3A488188008877
:105B6000401D814234DA002505E068003549085AB5
:105B70008619681CC5B2032DF7DB03213046FDF7FB
:105B800043FC84B230480088002802D12E480480AB
:105B900022E02D480088001D84420BDA201D2A498E
:105BA0000988884206DD00202849087026480480BC
:105BB00012E024E0254801780078401C234A107048
:105BC000142909DD0020114608701F48048003E0F5
:105BD0001B4800881C490880114801880088401C27
:105BE0000F4A1080E1204001814215DD002011465E
:105BF0000880FFF769FD0020134908800CE00B487E
:105C000001780078401C094A10700F2904DD00203B
:105C1000114608700249088000BF54E7FE030020C7
:105C200000040020800300208403002002040020E0
:105C30003003002034030020E80600200304002085
:105C40003C000020F0170020D202002004040020B5
:105C500023480078012801D100207047214800889E
:105C60002149884202DD0020204908801F48008821
:105C7000002806D01D480088401E1C4908800020CE
:105C8000EBE71B480078002814D11A480078002858
:105C90001DD019480078002803D118480078002842
:105CA00015D00120124908700020154908601149DB
:105CB00008700CE00E480078012808D111480088CF
:105CC00009491439884202DD002009490870084852
:105CD0000078012801D10020BFE70120BDE70000C6
:105CE000E70200203C000020F80C0000E002002049
:105CF000FC030020100300205D0300205B03002054
:105D000004030020840300202B490978022919D1BB
:105D10002A49098A012911D129490A780978491C97
:105D2000274B1970052A2ADD0121234A1170002111
:105D30001A4611702349498E018020E00021204A33
:105D400011701CE01C490978012918D11B49098AE6
:105D5000022911D11A490A780978491C184B19707F
:105D60000F2A0CDD0221144A117000211A4611700D
:105D70001549498E018002E00021114A11700E4937
:105D80000978012913D111490A880988491C0F4B48
:105D90001980E12189018A420CDD0221064A117035
:105DA0000949498E018000211A46118002E0002134
:105DB000064A118070470000E7020020FC04002022
:105DC000F803002070F40000A8F40000FA0300209B
:105DD00010B502460B461920002108E04C001C5B60
:105DE000944202DD4C1CE0B203E04C1CE1B21929E4
:105DF000F4DB00BF10BD0000F8B506460024002506
:105E0000FE480078002800D0F8BDE1210901FC48D7
:105E10000068FDF703FB07460A21FDF7FFFAF94981
:105E200048870A21F8480068FDF7EEFAF549C88668
:105E30000A21F6480068FDF7E7FAF2490887F448B6
:105E40000078002815D00846806A7D210901884223
:105E50000FDCF048007800280BD10421E9484030DD
:105E600001824038C06B8843E649C8630120E94994
:105E70000870E9480078002803D1E6480078002837
:105E80007ED0E048C06B08210843DE49C863E34880
:105E90000078002875D10120E0490870E12109014E
:105EA000DF480068FDF7BAFA0446DE494968D54A7A
:105EB000526D514308466421FDF7A6FA0546D948BC
:105EC0004068A0421FD8D848006800281BD1D74896
:105ED000D5490860CD480460D249496869225143D8
:105EE00008466421FDF790FAC849096888423ED8FF
:105EF000CC4949686922514308466421FDF784FA78
:105F0000C249086033E0C74840688008A0422ED2EA
:105F1000C548006800282AD1BA48806DFF21F531B4
:105F2000884224D3C148C0490860C1490978642225
:105F3000511AB64A12685143BD4A12786243881812
:105F40006421FDF761FAB1490860B64949688800E3
:105F50000521FDF759FAAD490968884207D9B149C9
:105F6000496888000521FDF74FFAA849086000201C
:105F7000B04908800A20AE490870A448006801E0D2
:105F80005BE004E1E12109014843A54908609F481D
:105F900000689D49086064219A4840304182A648C3
:105FA0000078002845D00020A34908709D4A516818
:105FB000964A126864235A431046FDF725FA914920
:105FC00048659E484088401C9C4948808D48406DEB
:105FD000692803D369208B4948652AE08948406DC8
:105FE000642808D38748406D692804D28548406DED
:105FF000844948651DE08348406D642812D2814879
:10600000406D50280ED97F48806DFF21F5318842C0
:1060100004D37C48406D7B4948650AE06420794997
:10602000486506E07748406D502802D850207549F1
:106030004865002082490870A9E08248007800285D
:1060400003D181480078002824D0804800780028B7
:10605000F2D17B4801780078401C794A10700F29F2
:10606000EADD012079490870002011460870664970
:106070000860002163484030418200206849086080
:1060800001206D49087064206949087070486949A9
:1060900008807CE000206A490870604908706B49FC
:1060A00008705848C06B082188435649C86357494F
:1060B0000968E1221201514308466421FDF7A4F961
:1060C0005749096888420CD950490968E1221201F0
:1060D000514308466421FDF797F9401C5049086078
:1060E00019E0504800682D21090148430621484322
:1060F000401E4B490968884209D24A4800682D2150
:1061000009014843062148434549086003E04448E3
:10611000006843490860E121090141480068FDF732
:106120007DF93949086009686422514308463749B6
:106130000968FDF769F981B2324840304182408AEE
:10614000632803DB63212F48403041822D484030D3
:10615000408A012803DC01212A4840304182294835
:106160004030408A294909684843242148432C4942
:106170000968081A3749886008468168234800681A
:1061800024225043814202D90020324988601D48B0
:106190004030408A2F4908801A48406D48601948AD
:1061A0004030408A142811DA2B480078401CC0B2D5
:1061B0002949087005280CDD002008701148006C82
:1061C0000121090308430F49086402E00020224925
:1061D00008700C484030408A192809DD00201E490B
:1061E00008700848006C01210903884305490864C8
:1061F00004484030408A022835DA2FE0230300208B
:1062000004030020BC040020FC020020F80200204F
:10621000760300207703002058030020E6030020C7
:10622000F002002014000020D802002080F40300B7
:10623000D4020020DC020020DE0200202400002026
:10624000E50300205D0300205B030020E70300203E
:106250006027000074070020E403002001210520CE
:1062600005F0F2F807E00548408A192803DD00210F
:10627000052005F0E9F800BFC6E50000FC04002099
:1062800010B50D480078401CC0B20B490870282892
:1062900011DB0020087009480068094909684018A6
:1062A00006490860FFF7FEFA04480068002802DA91
:1062B00000200249086010BDE8030020F002002021
:1062C000800300201E48C06B40210840402816D0A3
:1062D0001B48806A00280EDD1A4801780078401CAF
:1062E000184A1070092929DD002011460870012084
:1062F0001549087022E00020124908701EE010487D
:10630000C06B40210840402818D10D480168406802
:10631000FF302D3081420ED90C4801780078401CA6
:106320000A4A1070092909DD002011460870012071
:106330000549087002E00020044908707047000019
:10634000BC040020E802002041030020E9020020F4
:1063500070B5FFB081B005460026012149026846AC
:10636000FDF750F8002400BF06E02819552103F07E
:1063700012FC69460855641C012040028442F4DB8B
:10638000280A0002552103F007FB55221146284632
:1063900003F01CFC0646012E11D1280A00025521EB
:1063A00003F0FAFA002406E06A46115D2819552226
:1063B00003F00CFC641C012040028442F4DB3046F4
:1063C0007FB001B070BD000010B50446FE480078F3
:1063D000002800D010BDFD48C07C8006000F0028BA
:1063E0000BD0FA48C07C8007C00F002805D0F848C1
:1063F000806C01210843F6498864F548806C0221CD
:106400000840002823D1F349085E2721C943884268
:1064100004DDF1480021415E7D2914DB0020EF49B5
:106420000870EF480078401CC0B2ED490870112890
:106430002ADDE748806C02210843E5498864002092
:10644000E749087020E00020E54908701CE0E149B8
:106450000020085E2221C943884215DBDE48002166
:10646000415E782910DCDD480078401CC0B2DB4971
:106470000870112808DDD648806C02218843D44971
:1064800088640020D5490870D148806C04210840F8
:1064900000281ED1D3480078002816D1CC48806A45
:1064A000D149884211DDD1480078401CC0B2CF49A3
:1064B0000870112810DDC648806C04210843C449C7
:1064C00088640020C949087006E00020C7490870A8
:1064D00002E00020C5490870BD48806C08210840D2
:1064E00000281FD1C2480078002817D1B848806A18
:1064F000BD494942884211DABE480078401CC0B20A
:10650000BC490870112810DDB148806C082108438F
:10651000AF4988640020B749087006E00020B549FB
:10652000087002E00020B3490870A948806C10216F
:10653000084000282ED1A548C07C8007C00F002845
:1065400028D1AD480088AD490988AD4A89188842EC
:106550000ADCAA4800881146884205DBA648008864
:106560007D214901884211DDA6480078401CC0B257
:10657000A4490870112836DD9548806C1021084325
:106580009349886400209F4908702CE000209D49B1
:10659000087028E099480088E121C90088421FDD81
:1065A00095480088984988421ADA934800889349A8
:1065B00009887D22D2008918884211DA9348007830
:1065C000401CC0B29149087011280CDD8048806CD5
:1065D000102188437E49886400208C49087002E0BD
:1065E00000208A4908707A48806C012149040840DB
:1065F000002809D186480078002829D07448806C8A
:1066000008437349886423E07C480088E121C9007D
:10661000884210DD784800887B4988420BDA76484A
:106620000088764909887D22D2008918884202DADA
:1066300000207749087076480078002808D164481F
:10664000806C0121490488436149886405F0F0FEAB
:106650005F48806C012109040840002809D16D4879
:106660000078002810D05A48806C08435849886444
:106670000AE068480078002806D15548806C01215E
:1066800009048843524988645148806C0121890477
:106690000840002809D160480078002810D04C48F4
:1066A000806C08434A4988640AE05B480078002807
:1066B00006D14748806C0121890488434449886495
:1066C0004348806C0121C9040840002809D153487F
:1066D0000078002810D03E48806C08433C4988640C
:1066E0000AE04E480078002806D13948806C012124
:1066F000C9048843364988643548006C012109047F
:10670000084000281CD13248806D3749884204D89F
:106710004348C068434988420AD92D48006C01218A
:10672000090408432A49086401203F49087013E01E
:106730002748006C012109048843254908640BE0BF
:106740002348806D2849884206D22148006C0121E7
:10675000090488431E4908643348007800280BD098
:1067600031488078002807D01948806CFF2101311A
:1067700008431749886406E01548806CFF21013101
:1067800088431349886429480078002860D110485C
:10679000806C27490840002856D10D48406C0121E3
:1067A000C903084000284FD122480078401CC0B2DD
:1067B0002049087006284EDD01201C4908701E4A39
:1067C000517810783AE0000023030020E010002008
:1067D000BC0400204400002040000020DC03002016
:1067E000DB030020D002002088130000DD0300201E
:1067F000D1020020DE030020380000203C000020F1
:10680000DC050000DF030020740E0000E003002020
:106810006A0300206B0300206F0300206E0300203A
:10682000F007002000EC5E00300800206903002023
:106830009F000F00E10300209002002003F0CAFE39
:1068400000200649087006E000200449087002E0B4
:1068500000200249087000BFBCE50000E1030020F1
:1068600070470000F0B5074600BF0026384607F025
:1068700017FD1348006803F0BDFFFF217531484341
:106880000546002D03D005208003854201D9002054
:10689000F0BD002408E00B4909680819552103F0F0
:1068A0007AF9801986B2641CAC42F4D306480068B9
:1068B000FDF72EFDB04201D10120E9E70020E7E716
:1068C000A0000020A40000209C00002070B5064617
:1068D0000C461546284607F0E3FC0C2107480068E3
:1068E00003F0C4F805480168304608F01BFB044873
:1068F00001682046FDF720FD70BD0000A0000020CB
:106900009C00002010B504467D480078002800D087
:1069100010BD7C4A5178107803F06EFE002866D1D5
:1069200079480078401C78490870084600780328A8
:1069300035DD08460078142831DC012073490870E1
:106940007348806C802188437149886400207149B4
:106950000870714908706E48C06B012189050840B4
:10696000884218D16A48C06B49000840884212D05A
:106970006A480078401C6949087008460078032876
:1069800008DD08460078142804DC00200870012087
:106990006349087083E00020604908707FE05A482E
:1069A0000078142814DD58480078232810DC0120D2
:1069B0005C4908705648806C8021084354498864BB
:1069C0000120544908700121022004F03DFD66E0D9
:1069D0004D480078232862DD01204F49087034209B
:1069E000494908700121022004F02EFD57E00020E3
:1069F0004549087045480078002839D000204349AF
:106A000008704348406C012189020840884228D11F
:106A100045480088401C44490880084600880128F1
:106A200001D14249087041480078002820D03E48F2
:106A3000008802281CD13E480088322818DA01203C
:106A40003C4908703248C06B012149020843304973
:106A5000C8630020354908703349088034490880EC
:106A600006E00020314908702F490880304908802D
:106A70002E48007800280FD02D480088401C2C4953
:106A8000088008460088642809DD0020088027491E
:106A900008702549088002E00020254908801E482A
:106AA0000078002805D01A48806C802108431849D6
:106AB00088641748806C8021084080281BD1012001
:106AC0001D49087013480078002817D11B4800881A
:106AD000401C80B219490880194988420EDD0C48D3
:106AE000806C802188430A49886400201549087019
:106AF0001249088002E000201049088000BF07E723
:106B0000230300206002002016040020130400204C
:106B1000BC0400201E0400207D0300201F04002070
:106B200046030020140400201C040020150400204B
:106B30001A0400203D0300207003002018040020E8
:106B4000B80B00007504002070B505460024FE480F
:106B50000078002800D070BDFC480078002805D0DF
:106B6000FA480078401EF949087002E02846FFF70D
:106B700077FEF748007800285ED0F64800780028B5
:106B80005AD1F5480078002856D1F448806C002886
:106B900052D1F348007800284ED1F24800780028FE
:106BA0004AD1F1480078002846D1F0480078002802
:106BB00042D1EF48007800283ED1EE480078002806
:106BC0003AD1ED480078002836D1EC48007800280A
:106BD00032D1EB48007800282ED1EA48007800280E
:106BE0002AD1E9480078002826D1E8480078002812
:106BF00022D1E748007800281ED1E6480078002816
:106C00001AD1E5480078002816D1E4480078002819
:106C100012D1E348007800280ED1E248007800281D
:106C20000AD1E1480078002806D1CC48C06B402149
:106C30008843CA49C86311E0C8484030008A022826
:106C400006D1C648C06B40218843C449C86305E0EB
:106C5000C248C06B40210843C049C863BC480078A3
:106C6000002846D0BB480078002842D1BA480078B6
:106C700000283ED1B948806C00283AD1CB48007832
:106C8000002836D1CA480078002832D1C948007897
:106C900000282ED1C848007800282AD1C74800789B
:106CA000002826D1C6480078002822D1C54800789F
:106CB00000281ED1C448007800281AD1C3480078A3
:106CC000002816D1B4480078002812D1B3480078C3
:106CD00000280ED1B448007800280AD1BC480078BA
:106CE000002806D19D48C06B802188439B49C8631A
:106CF00011E09A484030008A012806D19748C06BBD
:106D0000802188439549C86305E09448C06B802181
:106D100008439249C8639148C06B4021084040280D
:106D200002D16408640001E0012004438B48C06B79
:106D300080210840802804D102212046884304464F
:106D400001E002200443A3480078844206D0204694
:106D500005F0BCFB0020A04908700CE09E480078BC
:106D6000401CC0B29C490870092804DD002008704E
:106D7000204605F0ABFB9748047094480078002843
:106D80007ED096480078002806D1954800780028E3
:106D900002D101209149087092480078002807D05C
:106DA00001208F49087000208F4908708F490880A2
:106DB0008B48007800282ED101208B4908708B4821
:106DC0000088401C89490880894801780078401C67
:106DD000874A1070012976DD022011460870834829
:106DE0000088012818DD81480088042814DA5B48EF
:106DF00000687D210901884265D200201146087093
:106E00007A49088001207649087000207649087088
:106E100001207849087056E0744800880A2817DA7B
:106E20004E480068744988424DD900207049087066
:106E30006E49088001206A49087000206A4908707C
:106E400005F0F6FA6D480078401C6C4908703AE08D
:106E5000664800880F281ADA404800687D218901B9
:106E6000884230D3002062490870604908800120C0
:106E70005B49087000205C49087005F0D9FA00E011
:106E80001AE05E480078401C5C4908701BE0002056
:106E90005749087055490880012051490870002061
:106EA000514908705349087054480078401C5349B0
:106EB000087005F0BDFA06E00020494908704A490B
:106EC00008704A4908802248007800283AD02148B2
:106ED0000078002836D120480078002832D11F4899
:106EE000806C00282ED11E48007800282AD11D4829
:106EF0000078002826D11C480078002822D11B48A1
:106F0000007800281ED11A48007800281AD11948A4
:106F10000078002816D118480078002812D11748A8
:106F2000007800280ED11948007800280AD11948A5
:106F30000078002806D118480078002802D11748A8
:106F400000785DE08EE00000230300202204002092
:106F5000690300207003002068030020BC040020A7
:106F6000580300205703002055030020530300203E
:106F7000510300204D030020490300204E03002050
:106F8000630300205E030020600300207A030020DA
:106F90007C0300206A0300206E0300206F030020A2
:106FA00074030020770300207F0300205D0300208E
:106FB0005B03002066030020500300204B030020E9
:106FC0007B0300206B0300206D0300206C03002076
:106FD0004403002023040020240400204003002058
:106FE000280400203E030020720300202604002015
:106FF0002A04002073030020881300003F030020B0
:1070000000282FD13448007800282BD1334800784D
:10701000002807D132480078002803D13148007891
:10702000002803D03048007800280BD02F48007883
:10703000002807D12E480078002813D02D4800786A
:1070400000280FD12C48007800280BD12B4A51780A
:10705000107803F0ABFB2A48C06B10210843284985
:10706000C8631AE02748007800280BD0234A5178DB
:10707000107803F09BFB2248C06B10210843204985
:10708000C8630AE01D4A5178107803F0A3FA1C483F
:10709000C06B102188431A49C8631A480078002839
:1070A00005D0194A5178107803F080FB11E0134A9B
:1070B0005178107803F0A0FA002805D0124A5178D0
:1070C000107803F073FB04E00F4A5178107803F056
:1070D00081FA00BF3FE500007F0300205E0300202F
:1070E0006003002063030020250300207C030020B0
:1070F0007403002075030020770300207402002031
:10710000BC04002072030020700200205F4909784F
:10711000002900D070475E4949685E4A1269914271
:107120002FD95B49896A00292BDB5949896A7D225D
:107130001201914225DA58490978002921D057498E
:107140000A780978491C554B1970322A3ADD54499E
:10715000097800290FD15349097800290BD1012161
:10716000504A11700021504A11804949C96B0422CC
:107170001143474AD16300214C4A1170474A1170AC
:1071800020E00021454A117046490978002907D0BE
:1071900046490978491CC9B2444A1170052903DCE3
:1071A0004049097800290DD100213E4A11703E4A1C
:1071B00011803749C96B04229143354AD1630021BC
:1071C0003A4A117037490978002910D036490988A0
:1071D000491C89B2344A11800A290BDB0021314A4B
:1071E0001170314A118001212D4A117002E00021F5
:1071F0002D4A11802E490978002907D12D49097897
:10720000002903D12C490978002915D020494031A3
:10721000098A022910D00121284A11700021214A2F
:107220001170214A11800422194940310A824039E3
:10723000C96B9143164AD16315494031098A022925
:1072400009D01E490978002912D01D490988114A20
:10725000D28E91420CDA0021184A1170114A117035
:10726000114A11800A49C96B04229143084AD1632B
:1072700013490988074AD28E914204DA0021084A4C
:107280001170104A117000BF44E700002303002072
:10729000BC040020E8060020D00200200E040020DC
:1072A000760300205903002010040020120400205F
:1072B00055030020530300205103002058030020F1
:1072C000380000207703002000200449087004499A
:1072D000086004490870044908807047DC080020F1
:1072E00050000020540000205800002010B500F08D
:1072F00001F810BD08B50020484908808870C870A2
:10730000087148718871C87101208860C8600020C8
:10731000086148618861C861086248628862C86221
:10732000086348638863C863084600693C49C865C8
:107330003A484069886540213848FEF781F9009055
:1073400040223849354801F07CFD02223549891E2A
:10735000684601F076FD002033490870C870487017
:1073600048608860887008734873C88110212E486F
:10737000FEF766F9009010222A4960312A4801F090
:1073800060FD022227495E31684601F05AFD19204E
:10739000264908806420486000208860C860102169
:1073A0002248FEF74DF9009010221E4920391F484F
:1073B00001F047FD02221B492239684601F041FDD8
:1073C0001A480188164840304182184840681449DC
:1073D0004865496D164A5268514308466421FCF7D6
:1073E00013F81449086011490988124A1268514378
:1073F00008466421FCF708F80F4908600846006851
:10740000E121090148430949896840180B4908608E
:1074100000200B490880488008BD0000F0070020CC
:10742000BC04002022045000300800207407002013
:1074300014000020F8020020FC020020F0020020CE
:107440002400002010B501210846FEF78FF8012125
:107450000846FEF767F80120FDF7F8FF00BF054872
:107460000079202108400028F9D00348034908602A
:1074700010BD000000040240001BB700B80400204B
:10748000F3B583B006460025346827793846049959
:1074900001F0E2FC002801D105B0F0BD654800789C
:1074A000002801D0082500E00725282F66D01CDC25
:1074B0000D2F5BD00ADC3B0006F016FE0DB8383C01
:1074C000B8B8B8B8B840444C5054B800202F68D071
:1074D00006DC112F3AD0182F54D0192F71D195E016
:1074E000262F62D0272FF9D144E0572F74D00EDC1D
:1074F000472F6CD006DC402F5BD0422F5DD0452F4C
:10750000ECD161E0512F65D0552FE7D163E0632FB7
:1075100078D006DC592F60D0602F5FD0622FDDD18C
:107520007CE0642F76D0662FD8D17BE001204249E1
:1075300008707CE000204049087078E0601904F091
:10754000ABF874E0601903F051FF70E0601904F0CB
:1075500001FC6CE000203949087068E001203749DF
:10756000087064E000203649087060E0012034496A
:1075700008705CE001203349087058E00020314970
:10758000087054E03048C06B0121890508408842EA
:1075900006D12E480078002802D101202B4908701E
:1075A00045E0601904F002FC41E0601904F0FEFAC5
:1075B0003DE0601904F090FA39E0601903F05CFFD7
:1075C00035E033E008E002E0FFF794FE2FE0FFF73C
:1075D0008DFE2CE02BE02AE029E028E01C48007812
:1075E00000280CD101201A4908700090194B002284
:1075F00011460190184803F083FF1849087016E0FF
:1076000000E007E0601903F00DFF10E0601904F0DE
:10761000E9FA0CE001201249087008E0601903F053
:10762000FDFF04E0601904F0A5FA00E000BF00BF10
:1076300000BF31E77A040020730400207A030020A1
:107640007B0300207C030020BC04002045030020B5
:107650007504002010270000418A00000800002067
:107660007604002070B504460E4680480089012843
:1076700027DD20783F280ED1032E0CDD01207C4928
:1076800008707C4800797C490870E0790978884264
:107690001ED0092070BD207800280DDB20787349AA
:1076A0000989884208DC032E06DD00207049087035
:1076B0002078714908700BE000206D49087009209E
:1076C000E8E720786C490978884201D00920E1E791
:1076D000082E06DBA078617809020843001DB0423D
:1076E00001D00120D6E7E078012801D00320D1E7BE
:1076F0002078002807D020783F286ED1E0795D49B6
:107700000979884269D101205C4908702079030019
:1077100006F0EAFC6778353638393A3C3D5F613F20
:10772000404142787843647837783E3B785D7278A0
:107730007878787878667878444546684849477814
:1077400078787878785878787878787878787878D9
:1077500078787878786A4A6C4B4C4D6E4E784F78D2
:1077600078787878785051787852535455565778BD
:107770007878787878595B74705A5C76780000BFB6
:1077800000BF00BF00BF00BF00BF00BF00BF00BF01
:1077900000BF00BF00BF00BF00BF00BF00BF00BFF1
:1077A00000BF00BF00BF00BF00BF00BF00BF00BFE1
:1077B00000BF00BF00BF00BF00BF00BF00BF00BFD1
:1077C00000BF00BF00BF00BF00BF00BF00BF042557
:1077D0001AE0502518E0902516E016E0182513E071
:1077E0000C2511E00C250FE014250DE00C250BE015
:1077F000062509E0082507E0082505E0082503E03F
:107800000C2501E0042045E700BF20783F2811D176
:10781000A078617809020843691C884208D1E079A0
:10782000174908700846007801280BDA022031E772
:1078300002202FE7A078617809020843A84201D00E
:10784000022027E76079552802D1A079AA2801D023
:1078500005201FE7B11E601C01F0FAFE711E615C7D
:10786000884201D0062015E7002013E78407002096
:107870007A0400200C0000207B0400201D0300205F
:107880007904002010B50446FE480078002800D096
:1078900010BDFD48006C4021084000281DD1FA4869
:1078A000806AFA49096D884213DDF9480078401C66
:1078B000C0B2F749087050281EDB00200870012074
:1078C000F4490870F048006C40210843EE49086410
:1078D00012E00020EE4908700EE0EB48806AEB49A8
:1078E000496D884208DA0020EA490870E648006CD1
:1078F00040218843E4490864E348406C4021084043
:1079000000287FD1E048806AE349884223DDE348CC
:107910000088401CE1490880E1480088401CE0499B
:107920000880E0480088401CDE490880084600883E
:10793000082866DD0120DC4908700020D74908804E
:10794000D7490880D7490880CF48406C4021084378
:10795000CD49486455E0CC48806AD449884224DD4A
:10796000CE480088401CCD490880CD480088401C86
:10797000CB4908800020CB490880CD484088801E34
:10798000C749098888423CDA0120C74908700020AD
:10799000C2490880C2490880C2490880BA48406C80
:1079A00040210843B84948642BE0B748806AB7498A
:1079B000896D88421EDDB9480088401CB74908809F
:1079C0000020B7490880B7490880B9480088801E60
:1079D000B2490988884214DA0120B34908700020AE
:1079E000AE490880A848406C40210843A649486435
:1079F00007E007E00020A9490880A9490880A949B3
:107A0000088014E0AB480078002810D00020A3497B
:107A10000880A3490880A3490880A3490870A549A4
:107A200008709948406C40218843974948649648BB
:107A3000406C012109040840002813D09E480078BA
:107A400000280FD000209D4908809D4908809D494D
:107A50000870994908708C48406C012109048843DA
:107A6000894948648848006C8021084000281DD15D
:107A70008548806A8549C96D884213DA9248007842
:107A8000401CC0B29049087050281EDB00200870CE
:107A900001208E4908707C48006C802108437A4997
:107AA000086412E00020884908700EE07648806A79
:107AB0007649096E884208DD0020844908707248C2
:107AC000006C80218843704908646F48406C8021B5
:107AD000084000287ED16C48806A7D4988422ADAB5
:107AE0007C480088401C7B4908807B480088401CFB
:107AF0007949088079480088401C7849088078488E
:107B00000088401C7649088008460088082811DD56
:107B100001207449087000206E4908806E49088071
:107B20006E4908806E4908805748406C80210843A0
:107B3000554948648DE05448806A6B49884228DA88
:107B400064480088401C6349088063480088401CE2
:107B50006149088061480088401C60490880002015
:107B60005F4908805D480088302872DD01205D494A
:107B700008700020574908805749088057490880F5
:107B8000574908804048406C802108433E4948647A
:107B90005FE03D48806A4549494288422ADA4D48BB
:107BA0000088401C4B4908804B480088401C4A49CB
:107BB0000880002049490880494908803C48C0881D
:107BC000801E45490988884243DA012045490870EA
:107BD000002000E03EE0404908803E4908803F49DF
:107BE00008803F4908802848406C80210843264986
:107BF00048642EE02448806A2449496E88421FDA8E
:107C000034480088401C33490880002032490880ED
:107C1000324908803249088025488088801E2D49D5
:107C20000988884215DA01202E4908700020294968
:107C300008801548406C802108431349486408E0D7
:107C400000202449088024490880244908802449C8
:107C5000088016E025480078002812D0002021492D
:107C600008701C4908801C4908801C4908801C4970
:107C700008801E4908700448406C802188430249EE
:107C8000486435E023030020BC040020E8060020FF
:107C9000B20300206203002020A10700B4030020EB
:107CA000B6030020B803002063030020E093040023
:107CB0001C000020640300205F030020C403002098
:107CC000C60300205E030020BA03002065030020E5
:107CD000C0BDF0FFBC030020BE030020C003002095
:107CE000C203002066030020A051F5FF67030020B7
:107CF000CF48406C012189050840002809D1CD48B2
:107D00000078002810D0CA48406C0843C84948642D
:107D10000AE0C8480078002806D1C548406C012117
:107D200089058843C2494864C148406C01218903E0
:107D30000840002809D1C0480078002813D0BC486A
:107D4000406C0843BA4948640DE0BB4800780028FD
:107D500009D1B748406C012189038843B44948647C
:107D60000020B6490870B6480078002804D0B4480E
:107D70000078401EB2490870B1484078002804D00D
:107D8000AF484078401EAE494870AE480178007850
:107D9000401CAC4A107009297EDB00201146087097
:107DA000A9480078002807D1A8480078002803D106
:107DB000A748007800281AD0A6480088401C80B246
:107DC000A44908801D2804DA9948806AA24988429B
:107DD00016DA00209F4908800120A0490870A049B8
:107DE0000870A049087014209549087008E0002028
:107DF0009A4908709A4908709A490870954908800C
:107E000099480078002817D098480088401C80B214
:107E1000964908801D2805DA8548806A7D21C900B9
:107E200088420EDD002091490880012090490870A9
:107E300014208349487004E000208D4908708B4964
:107E400008807C480078002811D08A480188008882
:107E5000401C884A10801D2905DC7548806A7D21F8
:107E6000C900884206DD00208249088002E0002027
:107E70008049088080480078002823D07F48007817
:107E800000281FD17E4801780078401C7C4A107081
:107E900006291ADD002000E0BBE011460870794891
:107EA0000078042806DB0120744908700020754919
:107EB00008700AE0002073490870704908706E4924
:107EC000087002E000206E4908705B4800780028C6
:107ED0003AD06A480078002810D05548806A7D2141
:107EE000C90088420ADD00206449087052490870C0
:107EF000614908706349087004F09AFA4F480078A5
:107F0000002824D04A4800685F49884218D95F4851
:107F100001780078401C5D4A1070042917DD0020AC
:107F200011460870444908704148806C802188439C
:107F30003F49886400204149087004F079FA06E05E
:107F400000205249087002E0002050490870504853
:107F50000078002825D04F480078002810D14E49DD
:107F600008704E4801780078401C4C4A10700A296D
:107F70001CDD00201146087001204649087015E0FC
:107F8000002046490870444801780078401C424A65
:107F900010700F290ADD0020114608703D49087055
:107FA00004E000203C4908703C49087028480078EB
:107FB000002807D124480078002803D123480078FE
:107FC00000282BD01A48C06B1021084010280DD172
:107FD00033480078401CC0B2314908700A2808DBD9
:107FE0000020087001202F49087002E000202C4971
:107FF00008702C48007800280CD02B480078401CD2
:10800000C0B2294908700F280FDB002008702549ED
:1080100008700AE000202449087006E0002020498A
:108020000870214908701F49087000BF30E4000043
:10803000BC0400206D0300206C03002073030020AB
:1080400011030020B10300205E0300206003002024
:1080500063030020CA03002018FCFFFF5F03002019
:10806000610300206403002066030020CC0300208D
:1080700067030020CE030020400300203E030020C1
:10808000E60200203F030020B80B0000D0030020D0
:108090007403002075030020D2030020D1030020C8
:1080A000D303002025030020D4030020FEB50020C8
:1080B000029001900126AC484078002803D10021AD
:1080C000A9488170FEBDA848D438007800900220ED
:1080D000A549D4390870A448807800287ED00024AF
:1080E00092E02046E117490F091849050F0E0126B5
:1080F000E117490F0918C910C900621A31469140A9
:10810000CEB29948C01CC05D3040B04279D1610008
:1081100095484C30405A00280AD0610092484C30B3
:10812000405A401E81B262008F484C30815269E053
:108130008E48005D00280BD161008C48C038415A40
:108140006200803881520021FF300130015558E033
:10815000002552E061008448CC30405A00281DD1EF
:1081600061008248C038415A6200803881527F489D
:10817000005D022802D101217C4801557B4840382E
:10818000005D401CC1B2794840380155005DC828E7
:1081900031DDC8217548403801552CE06100724836
:1081A000CC30405A401E81B262006F48CC308152C0
:1081B0006100405A00281ED161006C48C038415A05
:1081C0006200803881526948005D022802D1012195
:1081D0006648015565484038005D00E01AE0401CE3
:1081E000C1B2624840380155005DC82803DDC8218E
:1081F0005E4840380155681CC5B25B488078A8428B
:10820000A8DC00BF601CC4B2402C00DA69E7002182
:108210005548817000251EE054484038405D0028D4
:1082200017D05248405D012813D1A9004F48403073
:10823000405800280DD04C480B30405D4C4909781F
:10824000884206DB48480B30405D49490870494880
:108250000570681CC5B2402DDEDB444840384549F6
:108260000978405C00286FD0404842490978405C5A
:10827000012869D13F48007881003C48403040588F
:10828000002861D03B480078810038484030405891
:108290000290384800788100374840580190032107
:1082A0003248344A12788154324801782E481438C2
:1082B00001750299019888472C4840382D49097862
:1082C000405C401EC1B2294840382A4A1278815485
:1082D000FF21FF38E138017526490878C117490F99
:1082E0000918CF10012623490878C117490F09182A
:1082F000C910C900421A31469140CEB21A48C01C7A
:10830000C05D3040B0421FD1FF21174814380175BD
:108310001549D43900980870144816490978405C0A
:10832000032811D11148403812490978405C0028CF
:1083300005D102210D480F4A1278815404E0012131
:108340000A480C4A1278815400200A4908700849EA
:108350000870FF210448143801750349D439009886
:10836000087000BFAEE60000E4110020F01300200A
:10837000B9020020BA0200203015002030B593B0B9
:108380000024FE4903C9079106900020049005903F
:108390004C22FB49FB4800F049FD0222F849891EA6
:1083A00012A800F043FD4C21F64805F0BBFC002864
:1083B00009D14C21F348FDF743F910A909898842F6
:1083C00001D1012400E00024002C27D10020EE4937
:1083D0000870EE490870EE48C06B0121C90388435C
:1083E000EB49C8630846C06B012109048843E8498A
:1083F000C8634C22E749E348FAF7A5FF4C21E5485A
:10840000FDF71EF908904C22DD49E24800F019FD05
:108410000222DB49891E08A800F013FDD948008814
:10842000DD4988420ED0D748408888420AD0D848D3
:10843000C06B0121C9030843D549C8630120D24953
:10844000087009E0D248C06B0121C9038843D049B4
:10845000C8630020CC490870CA48808CCE49884245
:1084600003D1C848C08C00282CD0C648008DCA490A
:10847000884203D1C348408D002823D0C148808D55
:10848000C549884203D1BF48C08D00281AD0BD48D5
:10849000008EC149884203D1BA48408E002811D0CD
:1084A000B848808EBC49884203D1B648C08E0028A7
:1084B00008D0B448008FB84988420ED1B148408FE7
:1084C00000280AD1B248C06B012109048843B04991
:1084D000C8630020AD49087009E0AD48C06B0121B8
:1084E00009040843AA49C8630120A84908708C22DE
:1084F000A349C039A94800F099FC0222A049C23919
:1085000011A800F093FC8C21A44805F00BFC002876
:1085100009D18C21A148FDF793F810A989888842D8
:1085200001D1012400E00024002C15D18C229C49AB
:108530009A48FAF77FFE8C219948FDF781F8089058
:108540008C228F49C039964800F07BFC02228C496E
:10855000C23908A800F075FC0822894960319148A9
:1085600000F064FC022286495E3110A800F05EFC37
:1085700008218C4805F0D6FB002809D1082189483C
:10858000FDF75EF810A90988884201D1012400E0B6
:108590000024002C1BD17949083103C903910290B2
:1085A000082202A97F48FAF7CEFE08217D48FDF790
:1085B00047F808900822724960317A4800F041FC7F
:1085C00002226F495E3108A800F03BFC00BF082280
:1085D0006B497031744800F029FC022268496E3101
:1085E0000BA800F023FC08216F4805F09BFB002836
:1085F00009D108216C48FDF723F86946898D884226
:1086000001D1012400E00024002C14D16748664900
:108610000860486008216448FDF712F808900822B5
:1086200057497031604800F00CFC022254496E3109
:1086300008A800F006FC0822514980315C4800F08F
:10864000F5FB02224E497E310AA800F0EFFB08211B
:10865000574805F067FB002809D108215448FCF76A
:10866000EFFF6946098D884201D1012400E0002412
:10867000002C19D15A204E4908805020488064208F
:1086800088805A20C88008214948FCF7D9FF089003
:1086900008223B498031464800F0D3FB022238498A
:1086A0007E3108A800F0CDFB10224249424800F07C
:1086B000BDFB02223F49891E0FA800F0B7FB102125
:1086C0003D4805F02FFB002809D110213A48FCF75E
:1086D000B7FF6946898F884201D1012400E0002458
:1086E000002C1CD1254B10331A681B1D0BCB01AD80
:1086F0000BC5009210222F49684600F0A2FB102102
:108700006846FCF79DFF0F9002222A49891E0FA898
:1087100000F097FB284869462EC92EC000BF2648A6
:1087200001881B4840304182234840681849486509
:10873000496D1D4A5268514308466421FAF764FEA8
:108740001E4908601C4909881C4A126851430846A2
:108750006421FAF759FE1A49086008460068E121C9
:1087600009014843144989684018164908604022A5
:1087700010492031144800F059FB27E08CF8000024
:10878000C20250009C0600207803002079030020DC
:10879000BC0400204CF3000010270000E806002075
:1087A00098F300001C00002014000020A0860100A7
:1087B000300000200204500074070020F80200205E
:1087C000FC020020F0020020F007002002225D4998
:1087D0000EA800F02BFB40215B4805F0A3FA00280F
:1087E00009D140215848FCF72BFF6946098F884280
:1087F00001D1012400E00024002C03D14021524883
:10880000FAF700FE002050498860084600694F4989
:10881000C8654D484069886510224A4962314C4814
:1088200000F004FB02224749603109A800F0FEFA7B
:108830001021474805F076FA002809D11021444854
:10884000FCF7FEFE6946898C884201D1012400E0D4
:108850000024002C05D13E48002101604160816068
:10886000C1603B48007B3B4908703948407B3A492E
:10887000087014223349BE39384800F0D7FA022272
:108880003049C0390DA800F0D1FA1421334805F061
:1088900049FA002809D114213048FCF7D1FE694675
:1088A000898E884201D1012400E00024002C03D1EC
:1088B00014212A48FAF7A4FD02F01EFD04222149E2
:1088C0008E39274800F0B2FA02221E4990390CA8CE
:1088D00000F0ACFA1421224805F024FA002809D14E
:1088E00014211F48FCF7ACFE6946098E884201D16D
:1088F000012400E00024002C13D11A480390042125
:1089000003A8FCF79DFE089004220E498E3903A8A7
:1089100000F097FA02220B49903908A800F091FA6A
:1089200000BF11480088401C0F4908800748C06BF1
:10893000C02108430549C8630C480D49C86408654F
:1089400013B030BD20045000F0070020BC0400200C
:1089500030080020DE020020D40200204008002061
:10896000D0310000010000C024000020AAAAAA0201
:108970008407002010B50A480078002800D110BDF7
:1089800000200749087002F00FFC012006F0E6FA0B
:10899000012006F0E1FA012006F064FB00BFEEE7DB
:1089A0007103002010B50346002403E0002000F00E
:1089B0000FF9641C9C42F9D310BD000010B50346AA
:1089C000002403E0034800F003F9641C9C42F9D33F
:1089D00010BD0000B80B000070B5064634461348C1
:1089E000007800281FD10120104908701048017834
:1089F000104800780C2250430F4A10580170122280
:108A00000E49601CFAF79FFC1321204605F0F6FB87
:108A10000546E57428122075152221460548007880
:108A200005F0F8F801E001F0CBFF70BD77040020FD
:108A30007804002074040020B00C0020D0F800005E
:108A400010B504460548007801F0ECFB0448806C42
:108A5000802108430249886410BD000008000020FE
:108A6000BC040020FEB5012600200190009056486D
:108A7000007802900120544908700846407C002884
:108A800055D000244EE02046E117490F091849054A
:108A90000D0E0126E117490F0918C910C900621A05
:108AA00031469140CEB248481230405D3040B0422D
:108AB00036D1002730E0610043482430405A002876
:108AC0000DD141481230415DB1434155801C005DDC
:108AD00002281FD101213C48143001551AE06100E1
