:020000040800F2
:10400000B847002035430008EBDA000899CA0008D9
:10401000BDDA0008BD7100082D1501080000000080
:1040200000000000000000000000000081E7000820
:10403000F5B40008000000004B4300082502010809
:104040004F4300084F4300084F4300084F43000808
:104050004F4300084F4300084F4300084F430008F8
:104060004F4300084F4300084F4300084F430008E8
:104070004F4300084F4300084F4300084F430008D8
:104080004F4300084F4300084F4300084F430008C8
:10409000311201084F4300084F4300084F43000806
:1040A0004F4300084F4300084F4300084F430008A8
:1040B0004F4300084F4300084F4300084F43000898
:1040C0004F4300084F4300084F4300084F43000888
:1040D0004F430008710E01084F4300084F4300088A
:1040E0004F4300084F4300084F4300084F43000868
:1040F0004F4300084F4300084F4300084F43000858
:104100004F4300084F4300084F4300084F43000847
:104110004F430008410E01084F4300084F43000879
:104120004F4300084F4300084F4300084F43000827
:104130004F4300084F4300084F4300084F43000817
:10414000417400084F4300084F4300084F430008E4
:104150004F4300084F4300084F4300084F430008F7
:104160004F4300084F4300084F4300084F430008E7
:104170004F4300084F4300084F4300084F430008D7
:104180004F4300084F4300084F4300084F430008C7
:104190004F4300084F43000800F042F800F089F850
:1041A0000023002400250026103A28BF78C1FBD840
:1041B000520728BF30C148BF0B607047642900F028
:1041C000ED80002070471FB50EF050FD1FBD7047F9
:1041D000010001000000E907040754343831303091
:1041E000434F4D2D56312E300000000000000000DE
:1041F00000000000000000004743343831303043F5
:104200004F4D2D56312E3000000000000000000000
:10421000000000000000000000000000000000009E
:104220000AA090E8000C82448344AAF10107DA4511
:1042300001D100F03EF8AFF2090EBAE80F0013F01A
:10424000010F18BFFB1A43F00103184790F000005C
:10425000B0F000000A444FF0000C10F8013B13F0DE
:10426000070408BF10F8014B1D1108BF10F8015BCF
:10427000641E05D010F8016B641E01F8016BF9D1C2
:1042800013F0080F1EBF10F8014BAD1C0C1B09D119
:104290006D1E58BF01F801CBFAD505E014F8016B8B
:1042A00001F8016B6D1EF9D59142D6D3704710B558
:1042B00010BD00F098FA1146FFF785FF0DF064FF7E
:1042C00000F0B6FA03B4FFF7F2FF03BC00F0BEFA49
:1042D000010000D04241543332473133374748342C
:1042E00038000000010001000000E907040200009E
:1042F00000000000000000000000000000000000BE
:1043000000000000000000000000000000000000AD
:10431000000000000000000000000000000000009D
:10432000000000000000000000000000000000008D
:10433000000000000948804709480047FEE7FEE703
:10434000FEE7FEE7FEE7FEE7FEE7FEE7FEE7FEE745
:1043500004480549054A064B704700004102010820
:1043600099410008B82F0020B8470020B83200203B
:10437000B83200200FB41CB5074B06AA7B4469462F
:104380000090059800F017FA0020694600F026FA20
:104390001CBC5DF814FB00005D0400002DE9F04139
:1043A0000646002410687529314616A510D0AFF3D3
:1043B0000080002802DA404213A507E031688A072E
:1043C00001D512A502E0490704D511A5012401E099
:1043D000AFF3008000210A2206F1240709E0B0FBB8
:1043E000F2FCB0FBF2F302FB1C00303078541846AC
:1043F000491C0028F3D123462A463046BDE8F04147
:1044000000F07BB9000000002D0000002B00000030
:10441000200000002DE9F05F894604464FF0000AB5
:10442000DFF824B1FB44C0F820A02046E1688847AB
:1044300000287DD0252806D0D4E901219047206AA4
:10444000401C2062F1E700255F462046E16888476E
:104450002028064607DB312E05D2B81910F8200CAB
:1044600008B10543F1E7A80701D525F00405C4F814
:104470001CA00027C4F818A02A2E09D030460DF041
:10448000F7FD38B304EB8708303EC8F8186019E030
:1044900059F8041B204604EB87029161E1688847C4
:1044A000012F064618D1E069002820DA25F0200502
:1044B0001DE0D8F8180000EB800006EB4000303813
:1044C000C8F818002046E168884706460DF0D0FD80
:1044D0000028EED1012F0AD02E2E08D12046E16807
:1044E00088477F1C0646022F45F02005C4DBA069E3
:1044F000002803DA404245F00105A061E80701D039
:1045000025F01005A6B1A6F14100192802D82036E1
:1045100045F400654A463146204625604D46FFF782
:104520004DFE60B1012807D0ED1D25F0070000E029
:1045300007E000F1080978E705F1040975E730465E
:104540007AE7206ABDE8F09FA2EE0000421E12F852
:10455000013F002BFBD111F8013B002B02F8013B7E
:10456000F9D17047032A40F2308010F0030C00F0BC
:10457000158011F8013BBCF1020F624498BF11F89D
:1045800001CB00F8013B38BF11F8013BA2F1040256
:1045900098BF00F801CB38BF00F8013B11F00303CE
:1045A00000F02580083AC0F0088051F8043B083A32
:1045B00051F804CBA0E80810F5E7121D5CBF51F8D4
:1045C000043B40F8043BAFF30080D20724BF11F84E
:1045D000013B11F801CB48BF11F8012B24BF00F8B3
:1045E000013B00F801CB48BF00F8012B704710B524
:1045F000203AC0F00B80B1E81850203AA0E81850DB
:10460000B1E81850A0E81850BFF4F5AF5FEA027C9B
:1046100024BFB1E81850A0E8185044BF18C918C00A
:10462000BDE810405FEA827C24BF51F8043B40F8AB
:10463000043B08BF7047D20728BF31F8023B48BF90
:1046400011F8012B28BF20F8023B48BF00F8012BCE
:10465000704702F0FF0343EA032242EA024200F0FD
:1046600002B84FF000020429C0F0128010F0030CD1
:1046700000F01B80CCF1040CBCF1020F18BF00F855
:10468000012BA8BF20F8022BA1EB0C0100F00DB804
:104690005FEAC17C24BF00F8012B00F8012B48BF62
:1046A00000F8012B70474FF0000200B51346944606
:1046B0009646203922BFA0E80C50A0E80C50B1F17A
:1046C0002001BFF4F7AF090728BFA0E80C5048BF8E
:1046D0000CC05DF804EB890028BF40F8042B08BF2C
:1046E000704748BF20F8022B11F0804F18BF00F828
:1046F000012B70477047704770472DE9F0470D4612
:1047000099469246044600F124080168880604D5BB
:10471000E06921F01001216000E00120A84201DDE4
:10472000471B00E00027A1697A1902EB0900081A6B
:10473000A0612078C00602D42046AFF30080002696
:1047400008E0D4E901211AF806009047206A401CCD
:10475000761C20624E45F4DB2078C0060AD5204640
:10476000AFF3008006E0D4E9012130209047206AB1
:10477000401C2062381EA7F10107F4DC07E0D4E9F1
:10478000012118F805009047206A401C2062281E6D
:10479000A5F10105F3DC2046AFF300802078000688
:1047A00002D50220BDE8F0870120FBE701694A1C21
:1047B00002610878704700B58FB0CDE90131002162
:1047C000059105497944CDE9031011466846FFF784
:1047D00021FE0FB000BD0000E5FFFFFF0A6802F8F0
:1047E000010B0A607047754600F02CF8AE460500D4
:1047F0006946534620F00700854618B020B5FFF7FC
:10480000A7FDBDE820404FF000064FF000074FF035
:1048100000084FF0000B21F00701AC46ACE8C009DE
:10482000ACE8C009ACE8C009ACE8C0098D467047E7
:1048300010B50446AFF300802046BDE81040FFF7F6
:1048400041BD000000487047582F00200149182042
:10485000ABBEFEE726000200816D21F010018165EC
:1048600070477F228A4302607047000000B587B01E
:104870000121480309F02AFB0721002000F03EF83F
:104880004FF478414FF4806009F0F4FA0420ADF859
:10489000180000208DF81B0006A9164807F0DEFE60
:1048A000002001908DF8080001208DF809004FF4D8
:1048B000602003900020049001208DF8140001A9CD
:1048C0000D4800F049F901210B4800F0B1F800BF94
:1048D0002021094800F037F90028F9D0064800F0F7
:1048E0006CF900BF044800F0C0F80028FAD107B006
:1048F00000BD000000080140000C024070B50546F4
:104900000C46A5B900214FF4807009F0CDFA20467D
:1049100009F0BEFA1048FFF79FFF1048FFF79CFF11
:104920000F48FFF799FF0F48FFF796FF12E00121AC
:10493000204609F0B9FA002009F0AAFA064800F06A
:1049400037F9064800F034F9054800F031F9054818
:1049500000F02EF970BD000000080240000C02407B
:1049600000180240001C0240F0B504461546002025
:104970000022122905D1E06D20F007001843E06500
:1049800020E0092911DDE068A1F10A0606EB4607DF
:10499000072606FA07F29043A1F10A0606EB46063F
:1049A00003FA06F21043E0600CE0206901EB4107D6
:1049B000072606FA07F2904301EB410603FA06F2D6
:1049C00010432061072D0FDA606B6E1E06EB860721
:1049D0001F2606FA07F290436E1E06EB860601FAC2
:1049E00006F21043606322E00D2D0FDA206BEE1FFC
:1049F00006EB86071F2606FA07F29043EE1F06EB2A
:104A0000860601FA06F21043206310E0E06AA5F181
:104A10000D0606EB86071F2606FA07F29043A5F15E
:104A20000D0606EB860601FA06F21043E062F0BDC1
:104A3000002221B1836843F00103836003E08368AF
:104A400023F001038360002200E0521CB2F5947F42
:104A5000FBD3704721B1826842F4A002826003E078
:104A6000826822F4A00282607047014600208A68B2
:104A700002F004020AB1012000E000204A6D02B1F8
:104A8000002070472DE9F04188B006460C4600250D
:104A9000002020700623012231462348FFF764FFDF
:104AA00002212148FFF7DDFE10211F48FFF7D9FE44
:104AB00001211D48FFF7CEFF00BF27E007F040FFB0
:104AC000804607E00221184800F034F8012801D19F
:104AD000207005E00221404606F0E2FD0028F1D0FA
:104AE00000BF02211048FFF7BCFE10210E48FFF75F
:104AF000B8FE0D4800F01AF82DF81500207818B906
:104B0000002008B0BDE8F081681C85B2082DD5DB17
:104B100000210548FFF79EFF0821684603F0A0F931
:104B200007463846EDE70000000C02400146C86C1D
:104B300080B270470246002013680B400BB1012081
:104B400000E00020704702460020936D0B400BB13F
:104B5000012000E00020704770B5024600200023CD
:104B6000002402F160042825256050680E4D28407D
:104B70000E790D6845EA06252843506090680B4D74
:104B80002840D1E9026535434E7945EA4605284378
:104B90009060D06A20F470000D7C6D1EEDB22B4346
:104BA00040EA0350D06270BDFFFEF0FFFDF7F1FF59
:104BB000816D41F01001816570470021426D1AB985
:104BC000826842F004028260002100E0491CB1F5D5
:104BD000947FFBD37047000000210AE00A4800EBF5
:104BE000C1000279481C824201D000207047481C55
:104BF000C1B2064800788142F0DB04480078044ADC
:104C000010810120F2E70000E02C0020AC0300201E
:104C10002808002030B599B000240025202111A8D3
:104C2000FFF741FDFF22202111A8FFF712FDFF220F
:104C3000402101A8FFF70DFD3A4903C9CDE9010163
:104C400000BF07E0374850F8340011A941F82400AC
:104C5000601CC4B2344800788442F3DB32480178E7
:104C600011A802F08AFA002420E0002517E011A81C
:104C700050F824002B4951F8351088420DD101A875
:104C800000EBC400274901EBC50206CA06C0601C40
:104C900001A901EBC401087105E0681CC5B22248F6
:104CA00000788542E3DB00BF601CC4B21E48007878
:104CB0008442DADB402201A91A48FFF798FC00245D
:104CC0001FE0184850F8340018490968884216D186
:104CD000144800EBC4000079144908713CB9012064
:104CE000104901EBC40148711049487106E00220E7
:104CF0000C4901EBC40148710C49487105E0601C86
:104D0000C4B2094800788442DBDB00BF0548006874
:104D1000074908600448007808710020487119B0FC
:104D200030BD0000E02C0020AC0300200C0000206F
:104D3000BC030020F8B505460020009000260024A2
:104D400007E0281906F0AEFDE10088400644601C2B
:104D5000C4B2042CF5DB3046F8BD0000F8B50746B8
:104D60000025002601200090002469460B20FFF753
:104D700089FE04469DF80000012801D107480480FF
:104D80000648008806490988484300EB4010000B9C
:104D90000A21B0FBF1F003490860F8BD06090020C4
:104DA00040070020E0030020F8B504460D461646F3
:104DB00000200090002794F802C060780CEB0021DE
:104DC00020790090002018706079552802D1A079D0
:104DD000AA2801D00520F8BD012203E0A05C3844D8
:104DE000C7B2521CC81C8242F8D39DF8000000F0E4
:104DF000800010B10420187004E0081D854201D025
:104E0000022018709DF80000772807D09DF8000058
:104E1000782803D0082D01D002201870C81C205C0F
:104E2000B84201D006201870081F30609DF80000BD
:104E3000D1E701460A78412A06DB0A785A2A03DCC0
:104E40000A78373AD0B20AE00A78302A06DB0A78C4
:104E5000392A03DC0A78303AD0B200E000207047EB
:104E600001460A78302A06DB0A78392A03DC0A78F8
:104E7000303AD0B200E0002070473CB502460B4605
:104E8000002000240094019400212CE01478302CA0
:104E900008DB1478392C05DC1478303CE4B20DF8CA
:104EA000014016E01478412C08DB1478462C05DC10
:104EB0001478373CE4B20DF801400AE01478612C14
:104EC00007DB1478662C04DC1478573CE4B20DF848
:104ED00001401DF801405D1E6D1AAD00AC4020433D
:104EE000521C4C1CE1B29942D0DB3CBD01460A7811
:104EF000412A06DB0A785A2A03DC0A78413AD0B202
:104F000000E00020704710B5044600F0F3FA00F00E
:104F10004DF900F07FFE10BD30B585B00546002488
:104F20004048007808B105B030BD00200BF058F9BA
:104F3000012804D001200BF053F9012800D1F2E739
:104F400039480089012810D1602238493848FFF7D4
:104F50004EFB0120374908700020374908800122A4
:104F60000021364801F040FE5AE02F480089012810
:104F700056DD33484079012835D12B480089314925
:104F8000097888422BDD3048007818B12E48007827
:104F900003280BDD00202C4908702A480078401CAB
:104FA000284908700846007828494871684608F082
:104FB00067FA25480078401C23490870204800798A
:104FC0002049097888420FD100201F49087001202C
:104FD0001E4988712246042102F03EFA04E00020B6
:104FE0001849087000E000BF1948007820B1224637
:104FF0000121084602F030FA1648007838B1164808
:10500000007828B122460221012002F025FA07E0AB
:105010001148007820B922460521012002F01CFA2F
:1050200000BF80E7BB01002028080020E00300202B
:1050300040040020B0030020482F0020202D002035
:105040000C000020D4030020AD030020BC0300208E
:10505000B80300201A0300200C0200200146C9B248
:1050600008467047014601F0FF51490D0846704758
:10507000014601F47F41090A084670472DE9F047CF
:1050800004460027B846B9460026002594F8F86182
:1050900094F8F951012E01DB012D01DABDE8F0870A
:1050A00094F8FB0100F0010000283CD0012794F89F
:1050B000FA01012827D002282FD0042802D0052881
:1050C0002FD126E019480089401CA8421ADD691E2C
:1050D00001EB4101164A02EB411060222146FFF725
:1050E00041FA002013490870681EC1B2012212481B
:1050F00001F07AFD0021681E104A22F810100121EB
:105100000F4A11540EE04FF0010801200D490870BC
:1051100008E000200C49087004E001200A490870EA
:1051200000E000BF00BF00BFB8E700002808002073
:1051300040040020AD030020202D0020482F002037
:10514000B00300200E0200200C0200201CB501203C
:1051500000906423002211460190104809F082FD5E
:10516000012000904FF496730022114601900C48E4
:1051700009F078FD01200090C8230022114601901B
:10518000084809F06FFD012000904FF4FA730022E7
:1051900011460190044809F065FD1CBD65D3000867
:1051A000194F0008074F0008259C00082DE9F0471B
:1051B00088B0002004900590069007900090019020
:1051C000029003900025002680468146BC48007866
:1051D00010B108B0BDE8F0879020BA4988867820E1
:1051E000C88600240EE004EB4400B74901EB4010F0
:1051F00090F8480000F01F0010B14FF0010805E0E2
:10520000601CC4B2AF480089A042ECDC00BFB8F11A
:10521000010F0FD1AD4801780078401CAB4A1070E7
:105220001E290FDD002011460870A9490870A94900
:10523000087007E00020A54908700120A449087003
:10524000A4490870002437E004EB4400A24901EBB4
:105250008000B0F90A00112806DD04EB440001EBE0
:105260008000B0F9087006E004EB44009A4901EBB5
:105270008000B0F90A70994840686421B0FBF1FAE7
:1052800004EB4401944A02EB8101888822463946A6
:1052900009F026FB0AFB00FA6420BAFBF0F089490A
:1052A00091F8591048436421B0FBF1F000B204A911
:1052B00021F81400601CC4B282480089A042C3DCFB
:1052C00000242FE004EB44007F4901EB401090F8EC
:1052D0003C0000F04000402803D1002080490855E0
:1052E0001EE004EB4400784901EB4010006C40F2F2
:1052F0004651084018B100207949085510E004EBE8
:105300004400714901EB401090F83C0000F00800A7
:1053100018B100207249085502E001207049085573
:10532000601CC4B267480089A042CBDC002409E0BD
:1053300004A830F814006A49095D10FB015085B2D9
:10534000601CC4B25F480089A042F1DC604800786C
:105350006843644908805B48806B0988884204D9A7
:1053600060480088574988630EE05648806B0A30D1
:10537000544988630846806B5A490988884203D992
:10538000584800884F498863002424E05348406807
:105390006421B0FBF1FA04EB44024F4B03EB8202B1
:1053A000B2F9081004EB440203EB8202D0882246D3
:1053B00009F006FB0AFB00FA6420BAFBF0F0414951
:1053C00091F8591048436421B0FBF1F000B22DF878
:1053D0001400601CC4B23B480089A042D6DC002403
:1053E00021E004EB4400384901EB401090F83C0008
:1053F00000F08000802803D100203B49085510E0D0
:1054000004EB4400304901EB4010B0F8400000F4D8
:105410002B6018B100203449085502E001203249C0
:105420000855601CC4B227480089A042D9DC00247A
:1054300008E03DF814002C49095D10FB016086B2BC
:10544000601CC4B21F480089A042F2DC21480078E9
:105450007043264908801B48C06B0988884204D9DC
:10546000224800881749C8630EE01648C06B0A300E
:105470001449C8630846C06B1C490988884203D98F
:105480001A4800880F49C8631948007840B90D4888
:10549000B0F8480005280BDC01201549087007E02A
:1054A0000848B0F848000A2802DB002010490870BC
:1054B0000F48007810B100200249C86300BF88E699
:1054C000BB01002028080020400400209E0300208B
:1054D0005803002059030020802C002014000020D5
:1054E0008A0300209A030020920300209C030020DE
:1054F0009F0300202DE9F04F87B00027B846002613
:10550000FA4890F80890B246B346002006900590FD
:1055100004900390029001900090F548007810B13B
:1055200007B0BDE8F08FF34840684FF47A71B0FBE4
:10553000F1F0EE4908800846008809894843EB49A4
:105540004860642081F8590000246BE02146EA4855
:1055500001F016FB022800D162E004EB4400E749A9
:1055600001EB4010008904EB4401E54A02EB8101A4
:10557000888004EB4400E14901EB4010008904EB12
:10558000440102EB8101C880012546E004EB4400A0
:10559000DA4901EB4010083030F8150004EB440103
:1055A000D74A02EB81018988884211DD04EB44006F
:1055B000114601F8205004EB4400D04901EB4010A3
:1055C000083030F8150004EB440102EB81018880BB
:1055D00004EB4400C94901EB4010083030F81500D5
:1055E00004EB4401C64A02EB8101C988884212DA01
:1055F00004EB4400114601EB8000457004EB4400CD
:10560000BE4901EB4010083030F8150004EB4401AE
:1056100002EB8101C880681CC5B2042DB6DB00BF57
:10562000601CC4B2B1480089A0428FDC002469E04C
:105630002146B14801F0A4FA022800D160E004EB51
:105640004400AE4901EB4010B0F92C0004EB4401DA
:10565000AB4A02EB8101488104EB440102EB81017A
:105660000881012549E004EB4400A44901EB401006
:105670002C3030F9150004EB4401A14A02EB810102
:10568000B1F90810884212DD04EB4400114601EB29
:105690008000857004EB4400984901EB40102C30E9
:1056A00030F8150004EB440102EB8101088104EBA2
:1056B0004400924901EB40102C3030F9150004EB06
:1056C00044018F4A02EB8101B1F90A10884212DAD3
:1056D00004EB4400114601EB8000C57004EB44006C
:1056E000864901EB40102C3030F8150004EB4401E2
:1056F00002EB81014881681CC5B2012DB3DB00BFFC
:10570000601CC4B279480089A04291DC7C48808842
:10571000764908837A48C088488379480089888216
:1057200077484089C88200245DE02146724801F034
:1057300027FA022800D154E004EB4400704901EB41
:10574000800080886949098B884209DB6D48847034
:1057500004EB44006A4901EB8000808863490883B8
:1057600004EB4400664901EB8000C0885F49498B27
:10577000884209DC6348C47004EB4400604901EBD3
:105780008000C0885949488304EB44005C4901EB20
:105790008000B0F908005549B1F91410884209DBBE
:1057A0005848047004EB4400554901EB800000891F
:1057B0004E49888204EB4400514901EB8000B0F966
:1057C0000A004A49B1F91610884209DC4D48447074
:1057D00004EB44004A4901EB800040894349C882F8
:1057E00000BF601CC4B241480089A0429DDC434810
:1057F00000680690002419E021463F4801F0C0F9F6
:10580000022800D110E004EB44003C4901EB4010B9
:1058100001680698814206D204EB4400374901EB47
:1058200040100068069000BF601CC4B22F48008979
:10583000A042E1DC314840682C490862C86100247C
:105840002EE021462C4801F09BF9022800D125E0EA
:1058500004EB4400294901EB401040682349C96921
:10586000884208D304EB4400244901EB401040680F
:105870001E49C86111E004EB4400204901EB4010CF
:1058800040681A49096A884207D804EB44001B495A
:1058900001EB401040681549086200BF601CC4B2AB
:1058A00012480089A042CCDC1448806A0F49886203
:1058B000486200243DE021460F4801F061F90228CA
:1058C00000D134E004EB44000C4901EB4010806A45
:1058D0000649496A884217DD04EB4400074901EB99
:1058E0004010806A0149486220E00000280800203A
:1058F000BB01002014000020202D002040040020C7
:10590000802C00206203002004EB4400BC4901EB22
:105910004010806ABB49896A884207DA04EB440078
:10592000B74901EB4010806AB649886200BF601C2D
:10593000C4B2B4480089A042BDDCB148B0F85200FE
:10594000B049C8858885AE48B0F8540080B2488612
:10595000088600245DE02146AB4801F011F90228D9
:1059600000D154E004EB4400A54901EB4010B0F82D
:105970005200A449898D884209DD04EB4400A04906
:1059800001EB4010B0F852009E49888513E004EB0B
:1059900044009B4901EB4010B0F852009949C98D71
:1059A000884208DA04EB4400954901EB4010B0F856
:1059B00052009449C88504EB4400914901EB401022
:1059C000B0F8540080B28F49098E884209DD04EB9B
:1059D00044008B4901EB4010B0F854008949088617
:1059E00014E004EB4400864901EB4010B0F8540089
:1059F00080B28449498E884208DA04EB4400804929
:105A000001EB4010B0F854007E49488600BF601C8E
:105A1000C4B27C480089A0429DDC002427E02146D6
:105A2000794801F0ADF8022800D11EE004EB4400F3
:105A3000734901EB401090F83C0000F04000402812
:105A400003D10598401C80B2059004EB44006C49DA
:105A500001EB401090F83C0000F08000802803D15A
:105A60000498401C80B2049000BF601CC4B265481A
:105A70000089A042D3DC63490598088204984882D3
:105A8000002423E02146604801F07AF8022800D182
:105A90001AE004EB44005A4901EB4010806C5B496A
:105AA000084018B10398401C80B2039004EB4400F6
:105AB000534901EB4010806C5549084018B10298D9
:105AC000401C80B2029000BF601CC4B24D480089E7
:105AD000A042D7DC4B49039888810298C881642191
:105AE0000698B0FBF1F04749A1F8420000240BE012
:105AF00004EB4400424901EB4010806A642190FBB2
:105B0000F1F00744601CC4B23E480089A042EFDCBB
:105B10003C484764808A00EB8000400000B239496D
:105B2000A1F84000002422E004EB4400344901EBDA
:105B30004010B0F8520004EB4401314A02EB41112D
:105B4000496D00FB018804EB4400114601EB401055
:105B5000406D064404EB440001EB4010B0F85200E5
:105B600018B90AF1010000F0FF0A601CC4B2254810
:105B70000089A042D8DCC6B1B8FBF6F000F0FF0BFC
:105B8000BBF1000F0DD11F480089504504D1002002
:105B90001C49A1F848000CE001201A49A1F848006E
:105BA00007E01848A0F848B003E000201549A1F824
:105BB0004800B9F1000F06D0B6FBF9F0C0B21149A8
:105BC000A1F84A0003E000200E49A1F84A00002491
:105BD0000AE004EB44000A4901EB4010C16D019852
:105BE00008440190601CC4B206480089A042F0DC61
:105BF000044841680198B0FBF1F0009000BF8FE4C9
:105C00004004002028080020202D00201F000F0045
:105C10009000010010B5F748007828B1F5480078E9
:105C2000401EF449087010BDF348007800B1FAE74F
:105C3000002418E004EB4400F04901EB401090F818
:105C4000440000F0040030B1ED48C06C40F00400A6
:105C5000EB49C8640BE0EA48C06C20F00400E84956
:105C6000C864601CC4B2E6480089A042E2DC00BF00
:105C7000002418E004EB4400E04901EB401090F8E8
:105C8000440000F0200030B1DD48C06C40F020003E
:105C9000DB49C8640BE0DA48C06C20F02000D8492A
:105CA000C864601CC4B2D6480089A042E2DC00BFD0
:105CB000002418E004EB4400D04901EB401090F8B8
:105CC000440000F0400030B1CD48C06C40F04000CE
:105CD000CB49C8640BE0CA48C06C20F04000C849FA
:105CE000C864601CC4B2C6480089A042E2DC00BFA0
:105CF000002418E004EB4400C04901EB401090F888
:105D0000440000F0800030B1BD48C06C40F080001D
:105D1000BB49C8640BE0BA48C06C20F08000B849A9
:105D2000C864601CC4B2B6480089A042E2DC00BF6F
:105D3000002418E004EB4400B04901EB4010B0F837
:105D4000440000F4807030B1AD48C06C40F4807005
:105D5000AB49C8640BE0AA48C06C20F48070A84925
:105D6000C864601CC4B2A6480089A042E2DC00BF3F
:105D7000002418E004EB4400A04901EB4010B0F807
:105D8000440000F4007030B19D48C06C40F40070D5
:105D90009B49C8640BE09A48C06C20F40070984995
:105DA000C864601CC4B296480089A042E2DC00BF0F
:105DB000002418E004EB4400904901EB4010B0F8D7
:105DC000440000F4806030B18D48C06C40F48060C5
:105DD0008B49C8640BE08A48C06C20F48060884915
:105DE000C864601CC4B286480089A042E2DC00BFDF
:105DF000002418E004EB4400804901EB4010B0F8A7
:105E0000440000F4006030B17D48C06C40F4006094
:105E10007B49C8640BE07A48C06C20F40060784984
:105E2000C864601CC4B276480089A042E2DC00BFAE
:105E3000002418E004EB4400704901EB4010B0F876
:105E4000440000F4804030B16D48C06C40F48040A4
:105E50006B49C8640BE06A48C06C20F48040684914
:105E6000C864601CC4B266480089A042E2DC00BF7E
:105E7000002417E004EB4400604901EB4010406C43
:105E800000F4000030B15E48C06C40F400005C4992
:105E9000C8640BE05A48C06C20F400005849C8643C
:105EA000601CC4B256480089A042E3DC00BF002455
:105EB00018E004EB4400514901EB401090F8480011
:105EC00000F0010030B14E48006D40F001004C4937
:105ED00008650BE04A48006D20F00100484908655C
:105EE000601CC4B246480089A042E2DC00BF002426
:105EF00018E004EB4400414901EB401090F84800E1
:105F000000F0020030B13E48006D40F002003C4914
:105F100008650BE03A48006D20F00200384908653A
:105F2000601CC4B236480089A042E2DC00BF0024F5
:105F300018E004EB4400314901EB401090F84800B0
:105F400000F0040030B12E48006D40F004002C49F0
:105F500008650BE02A48006D20F004002849086518
:105F6000601CC4B226480089A042E2DC00BF0024C5
:105F700018E004EB4400214901EB401090F8480080
:105F800000F0080030B11E48006D40F008001C49C8
:105F900008650BE01A48006D20F0080018490865F4
:105FA000601CC4B216480089A042E2DC00BF002495
:105FB00018E004EB4400114901EB401090F8480050
:105FC00000F0100030B10E48006D40F010000C4998
:105FD00008650BE00A48006D20F0100008490865CC
:105FE000601CC4B206480089A042E2DC00BF002465
:105FF00021E0000069030020BB01002040040020D4
:106000002808002004EB4400CF4901EB4010B0F811
:10601000480000F4807030B1CC48006D40F48070CE
:10602000CA4908650BE0C948006D20F48070C74973
:106030000865601CC4B2C5480089A042E2DC00BF0C
:10604000002417E004EB4400BF4901EB4010806CD2
:1060500000F4003030B1BD48006D40F40030BB4961
:1060600008650BE0B948006D20F40030B7490865B9
:10607000601CC4B2B5480089A042E3DC00BF002424
:1060800017E004EB4400B04901EB4010806C00F4D1
:10609000002030B1AD48006D40F40020AB490865E8
:1060A0000BE0AA48006D20F40020A8490865601C98
:1060B000C4B2A6480089A042E3DC00BFA4484068FF
:1060C00020F00300801CA24948600021072006F050
:1060D000BFFB08B1012100E002219D48406861F347
:1060E00083009B4948600021202006F0B1FB08B1E5
:1060F000012100E002219648406861F305109449AF
:10610000486000214FF4007006F0A2FB08B10121A5
:1061100000E002218E48406861F387108C49486096
:1061200000214FF4006006F093FB08B1012100E06C
:1061300002218748406861F30920854948600021B1
:106140004FF4807006F084FB08B1012100E00221C9
:106150007F48406861F38B207D49486000214FF4FF
:10616000806006F075FB08B1012100E0022178484B
:10617000406861F30D30764948600021802006F0C8
:1061800067FB08B1012100E002217148406861F31A
:106190008F306F4948600021402006F059FB08B15C
:1061A000012100E002216A48406861F3114068491A
:1061B00048600846406820F4402000F50020486010
:1061C0000846406820F4401000F5001048600021A7
:1061D0004FF4803006F03CFB08B1012100E00221C1
:1061E0005B48406861F397505949486008464068E9
:1061F00020F0407000F1007048600846406820F0D0
:10620000406000F1006048600846406820F070403F
:1062100048600846006820F00300801C08600121E7
:10622000072006F015FB08B1012100E002214848D3
:10623000006861F38300464908600121202006F0D0
:1062400007FB08B1012100E002214148006861F329
:1062500005103F4908600121480206F0F9FA08B12B
:10626000012100E002213A48006861F387103849B3
:1062700008600121C80206F0EBFA08B1012100E034
:1062800002213348006861F3092031490860012187
:10629000080206F0DDFA08B1012100E002212C48D5
:1062A000006861F38B202A4908600121880206F00A
:1062B000CFFA08B1012100E002212548006861F30E
:1062C0000D30234908600121802006F0C1FA08B191
:1062D000012100E002211E48006861F38F301C4953
:1062E00008600121402006F0B3FA08B1012100E066
:1062F00002211748006861F31140154908600846FB
:10630000006820F4402000F5002008600121880387
:1063100006F09EFA08B1012100E002210C48006855
:1063200061F315500A49086002210A4806F090FA04
:1063300008B1012100E002210548006861F397508F
:106340000349086000BF6EE44004002028080020D4
:10635000380000200F011F001CB50120022164231A
:106360000022CDE900101146504808F07BFC0120C6
:10637000022164230022CDE9001011464C4808F0A8
:1063800071FC0120022164230022CDE90010114696
:10639000484808F067FC012002214FF49673002260
:1063A000CDE900101146444808F05CFC01200221B0
:1063B0004FF496730022CDE9001011463F4808F0D3
:1063C00051FC012002214FF496730022CDE9001008
:1063D00011463B4808F046FC0120022164230022BC
:1063E000CDE900101146374808F03CFC012002219D
:1063F0004FF496730022CDE900101146324808F0A0
:1064000031FC012002214FF496730022CDE90010E7
:1064100011462E4808F026FC012002214FF4967305
:106420000022CDE900101146294808F01BFC01208C
:10643000022164230022CDE900101146254808F00E
:1064400011FC0120022164230022CDE90010114635
:10645000214808F007FC0120022164230022CDE935
:10646000001011461D4808F0FDFB012002216423A5
:106470000022CDE900101146194808F0F3FB012075
:1064800002214FF47A730022CDE90010114615481D
:1064900008F0E8FB012002214EF660230022CDE93E
:1064A00000101146104808F0DDFB1CBD01F6000885
:1064B0005D4D000849A100080D1C0108F9050108FF
:1064C000D58D00083994000809990008B1C7000863
:1064D000D988000839920008ED64000855DC0008EE
:1064E000610C0108290D0108910C01082DE9F0410A
:1064F0000746002500266748007848B96648C07CF2
:10650000C0F3400020B96448C07CC0F3830008B9E0
:10651000BDE8F0816148C06C80B161480068401CF2
:106520005F4908605F4909685F4A5143884208D95A
:1065300000205B4908605949C86402E000205849BE
:1065400008605648806C58B100205449C864B1F8BE
:106550004C1088B209F068F8544800210160D7E770
:106560004E48B0F85000022866D04C48C06C002855
:1065700043D14F48008840F6E44188423DDB002487
:106580002AE04648083030F8141049480088323074
:1065900081421CDD4548015D005D401C434A1055A9
:1065A000142917DD0020114608553C48C06C012114
:1065B000A14008433949C864204604EBD071491012
:1065C000A4EB410109B9012604E0012502E0002005
:1065D00036490855601CC4B2042CD2DB2F48C06C6D
:1065E00010B132480021016026B11DB102202D49B1
:1065F000086002E001202B4908602E48007830B97D
:106600002648C06C18B301202A4908701FE02948A9
:10661000007801281BD128480078012817D11F488D
:10662000B0F85000012812D100201C49C86421494B
:106630000870214908700AE01848B0F85000022894
:1066400005D11C480078012801D11B490870134866
:10665000C06CB8B1002413E01048083030F81400C2
:1066600040F6B831884209DC0C48C06C0121A140D9
:1066700088430A49C86400200C490855601CC4B20C
:10668000042CE9DB0549B1F84C1088B208F0CCFFC6
:1066900000BF3DE7BB01002074100020E003002094
:1066A000CC020020D802002020BF0200D00200202F
:1066B00044000020D4020020D502002070470000D2
:1066C0002DE9F0412DED0E8B002500260027A84670
:1066D0009FED9F0BB0EE408AF0EE608A9FED9C0B21
:1066E000B0EE40DAF0EE60DA9FED990BB0EE40EAE2
:1066F000F0EE60EA9848007860B309F015FB0446B4
:106700000CF02FF841EC180B944801780078401CED
:10671000924A1070042910DA914800680CF021F8B0
:1067200041EC1A0B53EC182B0BF0E0FD41EC190B6C
:106730000BF0E8FF8A49086027E08948006880106C
:1067400088490860002085490870854908608249A9
:1067500008701AE08448B0F9000010F10A0F0ADA54
:1067600009F0E2FA7F490968441A20460BF0F9FF64
:1067700041EC180B09E009F0D7FA7A490968441A84
:1067800020460BF0EEFF41EC180B9FED710B53EC24
:10679000102B51EC180B0CF049F94CD29FED730BF8
:1067A00053EC102B51EC180B0CF006F821D2714968
:1067B000B1F936000BF0D5FF41EC190B6D49888E0D
:1067C0000BF0E6FF41EC1C0B53EC182B0CF030F8EF
:1067D00041EC1B0B9FED680B53EC102B0BF03AFEBA
:1067E00041EC1A0B53EC192B0BF080FD41EC180B0C
:1067F0006DE06049B1F92E000BF0B3FF41EC190BCD
:106800005C49888D0BF0C4FF41EC1C0B53EC182B3A
:106810000CF00EF841EC1B0B9FED570B53EC102BBB
:106820000BF018FE41EC1A0B53EC192B0BF05EFD2C
:1068300041EC180B4BE09FED520B53EC102B51EC3D
:10684000180B0CF0F3F821D24A49B1F93A000BF0D9
:1068500088FF41EC190B4749088F0BF099FF41EC79
:106860001C0B53EC182B0BF0E3FF41EC1B0B9FEDC3
:10687000420B53EC102B0BF0EDFD41EC1A0B53ECDB
:10688000192B0BF033FD41EC180B20E03949B1F91D
:1068900032000BF066FF41EC190B3649088E0BF005
:1068A00077FF41EC1C0B53EC182B0BF0C1FF41ECB4
:1068B0001B0B9FED310B53EC102B0BF0CBFD41EC80
:1068C0001A0B53EC192B0BF011FD41EC180B9FED3B
:1068D0002E0B53EC102B51EC180B0BF06DFF0CD260
:1068E0009FED2B0B53EC102B51EC180B0CF09EF87A
:1068F00003D200202849086005E051EC180B0BF08A
:1069000001FF25490860244800682449886224481A
:1069100001780078401C224A10700A2907DA1F48C3
:10692000806A2049096808441E4908600BE01D4838
:1069300000680A2190FBF1F01B490860002018490B
:10694000087018490860BDEC0E8BBDE8F0810000AE
:106950000000000000000000D4010020FD02002023
:1069600004030020000300204C0000200000000071
:106970000088B34040070020000000000088C340AA
:10698000000000000088B3C00000000000408F40FD
:106990000000000000408FC01C020020E003002027
:1069A000FC020020F8020020140200200FB5002194
:1069B000009101910291039100200EE0274931F8E6
:1069C0001010A1F51C511039254A125611440AB273
:1069D000244921F81020411CC8B20128EEDB1F49D0
:1069E0003C39C98FA1F51C5110391D4A0A3A92F958
:1069F0000B2011440AB21B492C39CA85B1F92C105D
:106A0000194A1180194A11800021174A9170174ABA
:106A1000917001201FE01549B1F90020114931F9A9
:106A200010108A4206DA0F4931F810100F4A11800F
:106A3000114688700C49B1F900200A4931F910104B
:106A40008A4206DD074931F81010074A11801146C5
:106A50008870411CC8B20128DDDB0FBD7C07002017
:106A60007E1000200C0400204C0000204800002074
:106A70000EB500210022009201920292002012E045
:106A8000374A32F81020A2F51C52103A354B33F831
:106A900010301A4493B2344A22F8103032F81020E1
:106AA0001144421CD0B20428EADB2D4A121F52883E
:106AB000A2F51C52103A0A442B4B083B5A601A4666
:106AC00012892A4B1A802A4B1A800022274B9A706F
:106AD000274B9A7001201DE0254A1388224A32F87C
:106AE0001020934206DA204A32F81020204B1A80F8
:106AF0001A4690701D4A13881B4A32F810209342A0
:106B000006DD194A32F81020184B1A801A46907088
:106B1000421CD0B20428DFDB164A1278062A0CDAAF
:106B2000124A1288144B1B881A4412B2124B1A8054
:106B3000104A1278521C0F4B1A700E4A1278062A0D
:106B40000CD10D4AB2F90020062392FBF3F20B4B55
:106B50001A800022074B1A70074B1A800EBD0000E6
:106B60004407002088100020E80300204400002093
:106B7000400000200A030020080300201802002023
:106B800070B502461F2901DD002070BD0846CD17F3
:106B900001EB1575C5F30713CD1701EB15752D1115
:106BA000A1EB05156D062C0E52F823000125A5401A
:106BB000284040B152F82300651C0126AE40304009
:106BC00008B90120E1E752F823000125A54028403B
:106BD00040B952F82300651C0126AE40304008B190
:106BE0000220D2E70020D0E7F0B515461F2900DDCE
:106BF000F0BD0C46CE1701EB1676C6F30712CE1782
:106C000001EB16763611A1EB06167606330E7DB132
:106C100050F8224001269E40344340F8224050F86C
:106C200022405E1C0127B740BC4340F822400EE0E2
:106C300050F8224001269E40B44340F8224050F8CC
:106C400022405E1C0127B7403C4340F8224000BF71
:106C5000CEE700002DE9FC4705460F4690461C464E
:106C60004FF00009CA4600260020F849088020702D
:106C70004046B8F1770F72D00EDC722868D006DC7F
:106C800000286DD016280FD071286AD129E0752808
:106C90006FD07628F9D166E07838062861D2DFE82F
:106CA00000F0F5F4F3F293F1DFF8A4A3E9480078DB
:106CB00000F0010090B1552002F074FA01280AD1C9
:106CC00050225146E448FDF74DFC5020DF49088032
:106CD0000020207004E02320207001E02620207096
:106CE000FBE10BF033FA01904FF0FF3000900C21E4
:106CF000DA4805F02BFE0C21D54805F027FE0C21C3
:106D0000D74805F023FE0C21D64805F01FFE0F21C1
:106D1000D54805F01BFE0121CE4805F017FE0421E1
:106D200001A805F013FE0421D04801F057F8CF491F
:106D3000891E0988884204D00421684605F006FEB1
:106D400003E00421C94805F001FE00202070C4E1E1
:106D50005021C24805F0FAFD00202070BDE162E03C
:106D600043E1B4E105E00A2008F078FB0020207040
:106D7000B3E10120B8490870B4480088401CB34909
:106D80000880BB480088C0F30B0040F6AA21884267
:106D900002D020202070A0E1692006F067FA10B927
:106DA0002820207099E1B348B34908600B2008F00F
:106DB00055FBB248B24908600120B2490860002082
:106DC000A5490870207088E10120A34908709F48F8
:106DD0000088401C9D490880A548008840F6CC21C9
:106DE000884202D02020207077E15A2006F03EFA37
:106DF00010B92820207070E1A3489F4908600C203A
:106E000008F02CFBA1489E49086001209D490860BC
:106E10000020914908708D480088401C8B490880EB
:106E20000020207059E100208B4908704870022032
:106E300086490880924800689049884207D0904867
:106E400000689249884202D02020207045E1B7F5C1
:106E5000BC7F02D0022020703FE18A4800680128F0
:106E600005D1A978E87801EB002089490860A97864
:106E7000E87801EB002086490968884207D0212084
:106E800020702AE1D9E0A5E0A0E0B1E03AE029785D
:106E9000687801EB00297B480068814513D0794868
:106EA0000068401E48450BD173480068A0F5BA70D1
:106EB0007149086073480068401E7249086002E02A
:106EC0002120207009E14FF4BA726B480168281D37
:106ED00004F0F2FC6B4800785F490870694800884C
:106EE000000A48706448006800F5BA70624908609A
:106EF00064480068401C6349086000205C490880C1
:106F00002070EAE0002603E0A85D53498855761C0E
:106F1000022EF9DB2978687801EB00205D490860D2
:106F2000574800685549884223D169225948016869
:106F30005748006802F06AF9002055490860692046
:106F400002F030F901280CD100202070411E524877
:106F500004F054FE51484A49086000204449088022
:106F600033E04FF0FF314C4804F048FE23202070FE
:106F70002BE043480068454988421AD15A224548C7
:106F800001684348006802F041F900204049086068
:106F90005A2002F007F9012808D1002020703F484C
:106FA000374908600020324908800EE02320207015
:106FB0000BE0334800683949884204D03048006803
:106FC0003749884201D12720207086E000202070B8
:106FD00006F050FD0BF0BAF83249884202D2002088
:106FE000207001E00720207077E00420207074E01A
:106FF00028780006697800EB0140A97800EB0120B1
:10700000E97808442849086028790006697900EB86
:107010000140A97900EB0120E9790844234908607F
:107020000846008882B2204801680B4804F044FCFE
:107030001E480088054908804FE0134804F036FCDC
:10704000401C10B92520207047E031E06C00002082
:10705000D0410008A80000200E0B0020D00100083D
:10706000D0290108D0110208502D010892F103081F
:10707000AA000020002801089C000020AA55AA555B
:1070800070000020A000002000100208AA5A550A33
:1070900094000020980000208C3E000855555A5A54
:1070A000AAAA5A0A00400008900000208C00002084
:1070B0005A2002F077F8012806D10949094804F05E
:1070C0009DFD0020207001E02320207005E00020BD
:1070D000054908800420207000BF00BFBDE8FC8780
:1070E0005A5A69690C3F00086C00002010B50D4821
:1070F000006800EB4000C0000721B0FBF1F00A4936
:10710000B0FBF1F0400009490860094801F038FE81
:10711000012806D10748007820F00400001D054929
:10712000087010BDDC03002040420F0084000020E6
:1071300000F60208A800002070B502460B4619466A
:1071400018E0002012E032F81060451C32F81550AB
:10715000AE4209DD32F81040451C32F8155022F8D5
:107160001050451C22F81540451CE8B24D1E8542C2
:10717000E9DCE9B20129E4DC70BD70B502460B46DA
:10718000194618E0002012E052F82060451C52F821
:107190002550AE4209D952F82040451C52F82550DE
:1071A00042F82050451C42F82540451CE8B24D1ECF
:1071B0008542E9DCE9B20129E4DC70BD00BFFEE7ED
:1071C0001FB500208DF80A008DF80B0001208DF806
:1071D0000C000020ADF80000ADF80200ADF804008E
:1071E000ADF80600ADF8080001208DF80D006846E6
:1071F00000F002F81FBD000010B50021837A0122C3
:1072000002FA03F13D4A126842F001023B4B1A6058
:107210003A4A1C3212688A43384B1C331A60027B8C
:10722000CAB9364A0C3212688A43344B0C331A609E
:107230004288C38842EA0343304A4032847A42F8A3
:1072400034300288838842EA03432C4A4032847AED
:1072500002EBC4025360027B012A19D1274A0C3287
:1072600012680A43254B0C331A604288038842EAAD
:107270000343224A4032847A42F83430C2888388F9
:1072800042EA03431D4A4032847A02EBC40253604F
:10729000C27A3AB9194A121D12688A43174B1B1D4C
:1072A0001A6006E0154A121D12680A43134B1B1D93
:1072B0001A60028932B9114A143212688A430F4B9C
:1072C00014331A600289012A06D10C4A143212685A
:1072D0000A430A4B14331A60427B012A06D1074A3B
:1072E0001C3212680A43054B1C331A60034A1268A9
:1072F00022F00102014B1A6010BD00000066004040
:107300001FB500208DF80A008DF80B0001208DF8C4
:107310000C000020ADF80000ADF80200ADF804004C
:10732000ADF80600ADF8080001208DF80D006846A4
:1073300000F002F81FBD000010B50021837A012281
:1073400002FA03F13D4A126842F001023B4B1A6017
:107350003A4A1C3212688A43384B1C331A60027B4B
:10736000CAB9364A0C3212688A43344B0C331A605D
:107370004288C38842EA0343304A4032847A42F862
:1073800034300288838842EA03432C4A4032847AAC
:1073900002EBC4025360027B012A19D1274A0C3246
:1073A00012680A43254B0C331A604288038842EA6C
:1073B0000343224A4032847A42F83430C2888388B8
:1073C00042EA03431D4A4032847A02EBC40253600E
:1073D000C27A3AB9194A121D12688A43174B1B1D0B
:1073E0001A6006E0154A121D12680A43134B1B1D52
:1073F0001A60028932B9114A143212688A430F4B5B
:1074000014331A600289012A06D10C4A1432126818
:107410000A430A4B14331A60427B012A06D1074AF9
:107420001C3212680A43054B1C331A60034A126867
:1074300022F00102014B1A6010BD0000006A0040FA
:1074400000B585B06A460021024800F09AFB05B0FD
:1074500000BD0000006800402DE9FC4105460C46D7
:107460001646224890F80480012C18D0022C2CD00B
:10747000042C02D0052C33D11CE01D4F01206021CB
:107480003B460422CDE90010FE21404600F066F89C
:10749000334622462946404600F02CF821E00120E0
:1074A000002133460246CDE90010FE21404600F09F
:1074B00055F816E00120002133460522CDE90010E1
:1074C000FE21404600F04AF80BE00120002133463F
:1074D0000222CDE90010FE21404600F03FF800E016
:1074E00000BF00BF0120BDE8FC8100000C000020AF
:1074F000E00300202DE9F04104460E4615461F46E4
:10750000012C01DABDE8F081042D18D1611E01EBD8
:1075100041010D4A02EB411060220C49FDF767F86A
:10752000601EC1B201220A48FFF75EFB0021601E07
:10753000084A22F810100121074A115400E000BF48
:1075400000BF00BFDEE7000040040020E003002091
:10755000202D0020482F0020B00300202DE9FF4FF0
:1075600087B080469946149C4E464FF0000AD34699
:107570000027002500200190159810B90BB0BDE838
:10758000F08F042C02DC4FF0010A14E0201F0621CA
:1075900090FBF1F201FB120030B9201F90FBF1F0DB
:1075A000401C00F0FF0A06E0201F062190FBF1F0CE
:1075B000801C00F0FF0A142103A8FDF774F81025C1
:1075C0006D0508980544CDF80480DDF804804FEA85
:1075D000082001900198054445F400350395099869
:1075E0008DF81400042C43DD00273EE08DF8157063
:1075F00057B9210A8DF816108DF817403168069199
:10760000361D082004901DE0AAF10100B8420ADDF1
:1076100002A83168CDF81610B188ADF81A10B61D61
:10762000082004900EE0A6EB0900201A00F0FF0BE2
:107630005A4631460DF11600FCF794FF5E440BF1FB
:1076400002000490AAF10100B84202D045F480354E
:1076500001E025F48035039504208DF8080002A987
:10766000002000F047FD781CC7B25745BEDB16E08E
:1076700000218DF81510210A8DF816108DF817408D
:1076800024B12246314606A8FCF76CFF201D049069
:1076900004208DF8080002A9002000F02BFD00BF97
:1076A0006CE7000010B50B4800F0D2FC0948203010
:1076B00000F0CEFC0748403000F0CAFC012106482B
:1076C00007F07CFE0121054807F078FE05F0F6F989
:1076D00010BD0000982D0108B37E0008BD7E000893
:1076E0002DE9F04F8DB0054608AC2E464FF000084E
:1076F0000020029081468246834601900090706887
:1077000020F060406060B07AA060D6F80B00E060C6
:10771000D6F80F002061012061490870207B002805
:1077200037D160496068884233D1607B552830D1B9
:10773000A07B55282DD1E07B55282AD1207C5528C7
:1077400027D1607C552824D1A07C552821D1E07C0C
:1077500055281ED153488030049004208DF80C0029
:107760000820059080208DF81800AA218DF81910A6
:107770008DF81A108DF81B108DF81C108DF81D1047
:107780008DF81E108DF81F1003A9002000F0B2FC28
:1077900082E0A068032809D1207B0A2802D0207B40
:1077A0000B2803D1204605F083FE75E0607B20B9ED
:1077B000207A001FC0B2029003E0207A801EC0B27F
:1077C000029002AA3849204603F03EFE8046B8F1F6
:1077D000000F5ED1607B78B9E17BA07B41EA00209D
:1077E0003249A1F8F6010020A1F8F40104F11007D4
:1077F00001202D49088006E004F10E072A48008880
:10780000401C294908802949B1F8F411274A8818F1
:107810009DF808203946FCF7A5FE2448B0F8F4018D
:107820009DF8081008442149A1F8F401606800F4AB
:10783000803068BB00201C4908806068FDF70EFCA2
:107840001A4981F8F8016068FDF712FC174981F8C0
:10785000F901207B81F8FA01606800F4003038B14A
:10786000084690F8FB0140F0010081F8FB0107E0B9
:107870000E4890F8FB0120F001000C4981F8FB0153
:107880000A48FDF7FBFB4FF4FE710848FCF7E9FEE0
:1078900002E00020044908800DB0BDE8F08F000030
:1078A000B60100200000FF1FC80300204C2D00205F
:1078B00010B504460B48844209D10121480606F060
:1078C00025FB00214FF0007006F020FB08E00121AD
:1078D000880606F01BFB00214FF0806006F016FBC7
:1078E00010BD0000006400401FB501214FF0C060D2
:1078F00006F0FCFA2F48FFF7DBFF2F48FFF7D8FF11
:1079000001A800F02EF900208DF80A0001208DF862
:107910000B0000208DF80C0001208DF80D000020D8
:107920008DF80E0001208DF80F0000208DF8060064
:107930008DF807000D208DF8080002208DF8090051
:107940000420ADF8040001A91B4800F080F80020D5
:107950008DF807000D208DF8080002208DF8090031
:107960000820ADF8040001A9124800F070F8FFF7F4
:1079700027FCFFF7C5FC14208DF8000000208DF8CF
:1079800001008DF8020001208DF80300684606F022
:10799000ADF840208DF80000684606F0A7F80122F7
:1079A0000221044800F04AF801220221024800F0B6
:1079B00045F81FBD006400400068004008B56846F7
:1079C00004F0D7FE01210D2006F0B0FA4FF400605C
:1079D000ADF8000048208DF803006946154804F012
:1079E0003DFE4FF48050ADF8000018208DF80300E4
:1079F00003208DF8020069460E4804F02FFE4FF474
:107A00008050ADF8000048208DF8030069460A4810
:107A100004F024FE4FF40050ADF8000018208DF85B
:107A2000030003208DF802006946034804F016FEA7
:107A300008BD000000080140000C01401AB1436974
:107A40000B43436102E043698B434361704730B5A8
:107A5000024600200023146824F002041460146815
:107A600044F00104146000E05B1C546804F001045D
:107A70001CB94FF6FF74A342F6D1546804F0010418
:107A80000CB900206CE08C79012C04D1146844F00E
:107A90008004146003E0146824F080041460CC793E
:107AA000012C04D1146844F04004146003E014680D
:107AB00024F0400414600C7A012C04D1146844F0C2
:107AC0002004146003E0146824F0200414604C7A4D
:107AD000012C04D1146844F01004146003E014680D
:107AE00024F0100414608C7A012C04D1146844F042
:107AF0000804146003E0146824F008041460CC7ACD
:107B0000012C04D1146844F00404146003E01468E8
:107B100024F0040414608C78A407CD7844EA05644A
:107B20000D7944EA05444D7944EA05540D886D1EEB
:107B30002C43D461146824F001041460002300E095
:107B40005B1C546804F001041CB14FF6FF74A3429F
:107B5000F6D1546804F001040CB1002000E00120CB
:107B600030BD00218171C171017241728172C17297
:107B70008170C170032101710221417101210180D5
:107B8000704710B500F5D87303EB01131B6803F0C1
:107B900004031372137A53B900F5D87303EB01137E
:107BA0001B6840F2FF7404EA5353136009E000F5C8
:107BB000D87303EB01131B686FF0604404EAD3032E
:107BC000536000F5D87303EB01131B6803F0020345
:107BD000537200F5D87303EB01135B6803F00F03D6
:107BE000937200F5D87303EB01135B681B0AD3741F
:107BF00000F5D87303EB01139B68D37200F5D873BB
:107C000003EB01139B681C0A147300F5D87303EB94
:107C100001139B681C0C547300F5D87303EB01131C
:107C20009B681B0E937300F5D87303EB0113DB689D
:107C3000D37300F5D87303EB0113DB681C0A1474CB
:107C400000F5D87303EB0113DB681C0C547400F5CA
:107C5000D87303EB0113DB681B0E937421B9C3685F
:107C600043F02003C36003E0036943F02003036192
:107C700010BD10B502460020936803F08063B3F195
:107C8000806F00D110E0936803F00063B3F1006FE0
:107C900001D1012008E0936803F08053B3F1805FC5
:107CA00001D1022000E00420042874D002F5C07342
:107CB00003EB00131B6803F0010402F5C07303EB30
:107CC00000131C600B7A7BB94B7A0C8843EA44534F
:107CD00002F5C07404EB00142468234302F5C07459
:107CE00004EB0014236010E00B7A4C6843EAC403F1
:107CF0004C7A234302F5C07404EB00142468234338
:107D000002F5C07404EB001423608B7A03F00F03B8
:107D10008B7202F5C07303EB00135B6823F00F0452
:107D200002F5C07303EB00135C6002F5C07303EB54
:107D300000135B688C7A234302F5C07404EB0014D3
:107D400063608B7B1C064B7B44EA03440B7B44EA59
:107D50000323CC7A234302F5C07404EB0014A36020
:107D60008B7C1C064B7C44EA03440B7C44EA0323D3
:107D7000CC7B234302F5C07404EB0014E36002F5EE
:107D8000C07303EB00131B6843F0010402F5C073DA
:107D900003EB00131C6010BD70B503460C460020B9
:107DA00016E0802111E000F080051DB14506280E87
:107DB000504001E04506280E1D780D4005B15040A9
:107DC0000D4601EBD576C6F347010029EBD15B1CCC
:107DD000251EA4F10106F4B2E3D170BD30B5024610
:107DE000002016E012F8015B80EA0520082300BF9E
:107DF00000F400442CB141F2210484EA4004A0B212
:107E000003E04FF6FF7404EA40005C1EE4B2231E58
:107E1000EED14C1E211EE5DA30BD000002460020E6
:107E20000E4B1B68934202D26FF0270015E00B4BFC
:107E3000D3F89032934201D97D200EE0002109E071
:107E4000064B53F82130934203D8A1F1280318B20E
:107E500002E0491CA529F3DB00BF7047682E01082A
:107E6000F0B502460B46158816880024002100272D
:107E7000022B01DC0020F0BD002110E032F81100DF
:107E8000A84201DD32F8115032F81100B04201DA97
:107E900032F8116032F811000444481C81B2994252
:107EA000ECDBA819241A981EB4FBF0F087B2384610
:107EB000E1E710B5002000F007F810BD10B5012073
:107EC00000F002F810BD000070B504460025032C38
:107ED0007EDA04EB44005B4901EB8000C08804EBD0
:107EE0004401584A02EB8101098988420BD10020E4
:107EF00004EB440102EB8101C88004EB440102EB76
:107F00008101088170BD04EB44004E4951F8200006
:107F100004EB44014B4A02EB8101C98801EB81016A
:107F200010F82100D0B904EB4400114651F82000AC
:107F300004EB440102EB8101C98801EB810100EBF4
:107F40008100406804EB84013F4A42F82100002090
:107F500004EB840102EB810108721BE004EB440096
:107F6000384951F8200004EB4401364A02EB810104
:107F7000C98801EB810100EB8100406804EB8401BA
:107F8000314A02EB81014860042004EB840102EBDA
:107F90008101087204EB44002A4951F8200004EBE7
:107FA0004401284A02EB8101C98801EB810100EB01
:107FB0008100007A04EB8401234A02EB810188727C
:107FC00004EB44001F4951F8200004EB440100E099
:107FD00036E01C4A02EB8101C98801EB810100EB0C
:107FE000810004EB8401184A02EB8101C26841F868
:107FF0000B2F0069486004EB8402134B03EB8201F2
:10800000124A02EB44121068FFF733FE0546042DB6
:1080100016D004EB44000B4901EB8000C088401CE3
:1080200004EB4401074A02EB8101898890FBF1F2DD
:1080300001FB120004EB4401024A02EB8101C880FB
:1080400000BF5FE7A41000203C250020982D010808
:108050000179032949DA017901EB4101234A02EB55
:10806000810100220A604A608A60027902EB4202C2
:108070001E4B016943F82210818A027902EB420209
:1080800003EB820291800021027902EB420203EBB2
:108090008202D180027902EB420203EB820211815B
:1080A000017901EB4101124A02EB810100220A60D1
:1080B0004A608A60027902EB42020D4B816943F803
:1080C0002210818B027902EB420203EB8202918043
:1080D0000021027902EB420203EB8202D180027995
:1080E00002EB420203EB820211817047A4100020D0
:1080F000C81000202DE9F04104460D46032C6ADA31
:1081000004EB4400354901EB80000089401C04EB7E
:108110004401324A02EB8101898890FBF1F201FBB4
:10812000120086B204EB44002C4901EB8000C088A9
:10813000B0424ED0287804EB4401284A52F821106E
:1081400004EB4402254B03EB8202128902EB82020C
:1081500001F8220004EB44011A4652F8211004EB06
:10816000440203EB8202128902EB820201EB8201DC
:108170006868486004EB440153F8211004EB4403A1
:10818000164F07EB83031B8903EB830301EB83018A
:1081900001F10C0005F10C01AA68FCF728FA04EBC8
:1081A00044013A4652F8211004EB44023B4603EBEB
:1081B0008202128902EB820201EB8201A8688860C8
:1081C00004EB4400194601EB800006810120BDE864
:1081D000F0810020FBE70020F9E70000A410002058
:1081E000F0B504460027002600BF614800684FF440
:1081F000616148434FF47A7190FBF1F544BB002074
:108200005C4908705C480078022803D15B485C49EF
:10821000086006E058480078012802D159485849BA
:1082200008605948008818B958480088564908809D
:10823000534801685448008800F03AFB07464C4810
:108240000068784300EBC00080005149086008E0F6
:10825000022C06D10220474908704E4800684C495C
:1082600008604B4800684C490968401A4B4908604F
:10827000002C52D105EB850080000968884203DAA2
:108280000120474908700FE06FF01300684343492D
:108290000968884203DD02204149087004E000209B
:1082A0003E4908603E4908703D48007800285ED08D
:1082B00037480068242190FBF1F02D490968B0FB94
:1082C000F1F686B1052E0ED85A203649087042F2D2
:1082D0006070354908800120344908704AF6C000B2
:1082E0003349088043E00F2E0BD250202D490870EF
:1082F00042F260702C4908804AF6C0002C49088080
:1083000035E046202749087042F26070264908800F
:108310004AF6C0002649088029E0022C27D105EB47
:10832000850040001D490968884203DA01201C4984
:1083300008700FE06FF00900684318490968884227
:1083400003DD02201649087004E00020134908608C
:10835000134908701248007848B15A201149087032
:1083600042F2607010490880012010490870F0BD89
:1083700014000020A001002087010020302E0108F9
:1083800084020020F82D0108720100204400002022
:1083900098010020A4010020880100209C010020F9
:1083A000A8010020740100207C0100207E01002033
:1083B00080010020F0B500230021002400220020CD
:1083C0000025704E367806B9F0BD6F4EB66A002EA5
:1083D00002DB6D4EB36A02E06B4EB66A73420BB9B4
:1083E000502202E00326B3FBF6F2664E3678022EE8
:1083F00078D1654EB66A002E01DD114677E0624EF7
:10840000B66A624FBE4235DD614E3668614F3F68E5
:10841000F019614E366806EBC60606EBC606B0EBF1
:10842000860F01D9092511E05B4E366806EB8606FA
:1084300006EBC606B0EB860F01D9052506E000263F
:1084400006EBC606B0EB860F00D90025524E366803
:108450006E4306EBC606A0EB86064FF47A77B6FBB2
:10846000F7F44C4E36687642B6FBF4F191423EDAB0
:1084700011463CE0444EB66A7342454E3668454F5D
:108480003F68F019444E366806EBC60606EBC60692
:10849000B0EB860F01D9092511E03F4E366806EB97
:1084A000860606EBC606B0EB860F01D9052506E069
:1084B000002606EBC606B0EB860F00D90025364E27
:1084C00036686E4306EBC606A0EB8606B6FBF3F4F1
:1084D000304E36687642B6FBF4F1914207DA114627
:1084E00005E0FFE7274E3678012E00D11146254ED4
:1084F0003678022E13D1264E3668761A244F3E6007
:10850000244E36680E44234F3E603E463668002EA9
:1085100035DB00261B4F3E701E4F3E602FE0194E8C
:108520003678012E2BD1184EB66A46B3164EB66A6F
:10853000002E11DA194E36684FF461677E436427C6
:10854000B6FBF7F6124F3F68BE4205D9114E3668AA
:10855000F61A104F3E6009E00D4E36680E440C4F7F
:108560003E600C4E3668761A0A4F3E60094E3668F9
:10857000002E04DC0026034F3E70064F3E6000BF15
:1085800022E70000A8010020E003002048F4FFFFDC
:10859000880100209C010020140000209001002090
:1085A00070B5002600250024574800F01DF900F0A2
:1085B000C5F818B900205549088070BD54480068B6
:1085C000B0F57A7F79DA5248006810F57A7F74DD69
:1085D000504800884C4909888842F3DA00204E4907
:1085E00008704E4800684E49096888420CD94B48CB
:1085F00000684B490968401A4A494968434A128849
:1086000000FB012041490880444800684449086053
:108610003E480088B0F5616F54DD43480078032878
:108620000CDA4248008842493F4A127821F8120089
:108630003D480078401C3C49087043E000203A491E
:10864000087003213A48FEF777FD39488188008891
:10865000401D814232DA002505E0354830F815002A
:108660000644681CC5B2032DF7DB0320B6FBF0F00F
:1086700084B23048008810B92E48048022E02D488A
:108680000088001D84420ADA201D2A490988884290
:1086900005DD0020284908702648048012E026489D
:1086A00001780078401C244A107014290ADD00204B
:1086B000114608701F48048004E015E01B4800883C
:1086C0001C490880114801880088401C0F4A10800E
:1086D000B1F5E15F15DD002011460880FFF780FD50
:1086E0000020144908800CE00B4801780078401CF9
:1086F000094A10700F2904DD002011460870034953
:10870000088000BF59E70000960200209802002070
:1087100014020020180200209A020020C801002044
:10872000CC0100208C0700209B0200204400002088
:10873000582C0020720100209C0200202148007863
:10874000012801D1002070471F48008840F6F841F9
:10875000884202DD00201D4908801C48008830B195
:108760001A480088401E194908800020EBE7184885
:10877000007888B917480078D8B11748007810B940
:1087800016480078A8B1012011490870002014494A
:108790000860104908700CE00D480078012808D1E5
:1087A0001048008840F6E441884202DD0020084974
:1087B000087007480078012801D10020C3E7012094
:1087C000C1E7000087010020440000208001002054
:1087D00094020020A8010020EF010020ED010020FC
:1087E0009C010020180200202B49097802291AD187
:1087F0002A49B1F85010012911D129490A7809787C
:10880000491C274B1970052A2BDD0121224A1170C2
:1088100000211A4611702349498E018021E0002170
:108820001F4A11701DE01C490978012919D11B4903
:10883000B1F85010022911D119490A780978491C58
:10884000174B19700F2A0CDD0221134A11700021F9
:108850001A4611701449498E018002E00021104A25
:1088600011700D490978012912D110490A88098827
:10887000491C0E4B1980B2F5615F0CDD0221064ADE
:1088800011700949498E018000211A46118002E0C9
:108890000021064A1180704787010020E003002074
:1088A00090020020F82D0108302E010892020020CD
:1088B00010B502460B461920002108E033F811409C
:1088C000944202DD4C1CE0B203E04C1CE1B21929D9
:1088D000F4DB00BF10BD000070B506460024002583
:1088E000F848007800B170BDF74800684FF4616146
:1088F00090FBF1F00A2190FBF1F0F4494887F4482D
:1089000000680A21B0FBF1F0F049C886F148006820
:108910000A21B0FBF1F0ED490887EF48007890B1EB
:108920000846806AB0F5FA6F0DDCEC48007850B963
:108930000420A1F850000846C06B20F00400C86372
:108940000120E6490870E648007818B9E348007845
:1089500000287DD0DD48C06B40F00800DB49C863CB
:10896000E0480078002874D10120DE490870DE4814
:1089700000684FF4616190FBF1F4DC484068D34932
:10898000496D48436421B0FBF1F5D8484068A042E6
:1089900020D8D7480068E8B9D648D5490860CD48FE
:1089A0000460D2484068C0EB0010C0EBC0006421F6
:1089B000B0FBF1F0C749096888423DD8CB48406810
:1089C000C0EB0010C0EBC0006421B0FBF1F0C14966
:1089D000086031E0C5484068B4EB900F2CD9C4481A
:1089E000006848BBB948806DB0F5FA7F24D3C14810
:1089F000BF490860C0480078C0F16400B549096803
:108A00004843BD49097804FB01006421B0FBF1F043
:108A1000B0490860B548406880000521B0FBF1F01E
:108A2000AC490968884207D9B048406880000521F0
:108A3000B0FBF1F0A74908600020B04908800A2087
:108A4000AD490870A34800684FF46161484301E0F4
:108A500055E07DE0A44908609E4800689C49086094
:108A600064209A49A1F85200A548007828B3002054
:108A7000A349087097480068642148439B494968A6
:108A8000B0FBF1F0914948659E484088401C9D49E3
:108A900048808E48406D692803D369208B4948651A
:108AA00029E08A48406D642808D38848406D6928C9
:108AB00004D28648406D854948651CE08348406D76
:108AC000642811D28148406D50280DD97F48806DAF
:108AD000B0F5FA7F04D37D48406D7C4948650AE0D3
:108AE00064207A49486506E07848406D502802D8ED
:108AF000502076494865002083490870A9E08348E2
:108B0000007810B98248007818B3824800780028AD
:108B1000F4D17D4801780078401C7B4A107005290B
:108B200016DD01207B490870002011460870684955
:108B300008606649A1F852006B490860012070493D
:108B4000087064206C49087042F260706B490880BC
:108B50007FE000206C490870624908706D49087018
:108B60005A48C06B20F008005849C863594800684B
:108B70004FF4616148436421B0FBF1F05A49096840
:108B800088420BD9534800684FF46161484364211F
:108B9000B0FBF1F0401C544908601CE053480068E9
:108BA0004FF43471484300EB40000121C1EB400019
:108BB0004D49096888420AD24C4800684FF4347124
:108BC000484300EB400040004749086003E0464846
:108BD000006845490860444800684FF4616190FBB3
:108BE000F1F03B4908600846006864214843394970
:108BF0000968B0FBF1F03549A1F852000846B0F819
:108C00005200632802DB6320A1F852002F48B0F81D
:108C10005200012803DC01202C49A1F852002B4806
:108C2000B0F852002B490968484300EBC0002E49B8
:108C30000968A1EB800038498860084680682549AA
:108C4000096801EBC1018900884202D9002032493C
:108C500088601E48B0F852002F4908801B48406DBC
:108C600048601A48B0F85200142810DA2B480078EF
:108C7000401CC0B22949087005280BDD002008708F
:108C80001248006C40F480501049086402E0002053
:108C9000224908700D48B0F85200192808DD00205C
:108CA0001E4908700948006C20F480500749086488
:108CB0000648B0F85200022832DA0121052005F0FA
:108CC00075FF36E0BB0100209C010020E00300207E
:108CD00094010020900100200702002008020020DB
:108CE000EA010020800200208801002014000020FA
:108CF0007801002080F40300740100207C01002032
:108D00007E010020240000207F020020EF010020CF
:108D1000ED01002081020020180800207E020020C2
:108D20000548B0F85200192803DD0021052005F0A0
:108D30003DFF00BFD7E50000E003002000B50D486F
:108D40000078401CC0B20B490870282811DB0020B5
:108D5000087009480068094909680844064908601C
:108D6000FFF728FB04480068002802DA00200249C7
:108D7000086000BD8202002088010020140200204B
:108D800070B5ADF5006D05460126F1026846FBF7AA
:108D90008AFC002400BF05E0281902F083FD0DF8CD
:108DA0000400641CB4F5006FF6DB25F0FF0004F04E
:108DB00050FA012E09D125F0FF0004F04AFA0024F0
:108DC00000E0641CB4F5006FFBDB30460DF5006D70
:108DD00070BD000010B50446D948007800B110BD40
:108DE000D848C07CC0F3830050B1D648C07CC0F3E3
:108DF000400028B1D448806C40F00100D24988641A
:108E0000D14890F8480000F0020018BBCF48B0F9F4
:108E1000000010F1280F04DDCD48B0F900007D28D6
:108E200014DB0020CB490870CB480078401CC0B24E
:108E3000C9490870112829DDC348806C40F0020040
:108E4000C14988640020C44908701FE00020C2495D
:108E500008701BE0BD48B0F9000010F1230F15DBCE
:108E6000BB48B0F90000782810DCBA480078401CF4
:108E7000C0B2B8490870112808DDB348806C20F0F2
:108E80000200B14988640020B2490870AE4890F8E9
:108E9000480000F00400F0B9B0480078B8B9AA481A
:108EA000806A41F28831884211DDAD480078401C6B
:108EB000C0B2AB490870112810DDA348806C40F0A7
:108EC0000400A14988640020A549087006E000203C
:108ED000A349087002E00020A14908709A4890F860
:108EE000480000F00800E8B99E480078B0B99648FC
:108EF000806A9D49884211DA9C480078401CC0B2C3
:108F00009A490870112810DD8F48806C40F00800E5
:108F10008D49886400209549087006E00020934937
:108F2000087002E0002091490870874890F84800D6
:108F300000F0100068BB8348C07CC0F3400040BB19
:108F40008B4801888B48008800F2DC5081420ADCA3
:108F50008848008840F2DC51884204DB844800885D
:108F6000B0F57A6F11DD84480078401CC0B28249A8
:108F70000870112835DD7448806C40F0100072498B
:108F8000886400207C4908702BE000207A49087032
:108F900027E078480088B0F5E16F1FDD744800884D
:108FA00040F67461884219DA714801887148008876
:108FB00000F57A70814211DA70480078401CC0B226
:108FC0006E49087011280CDD5F48806C20F010009D
:108FD0005D49886400206949087002E00020674903
:108FE00008705948806C00F4003048B96448007833
:108FF00038B35548806C40F400305349886420E011
:109000005C480088B0F5E16F10DD5948008840F6F3
:10901000746188420ADA564801885648008800F58B
:109020007A70814202DA002055490870544800786D
:1090300038B94548806C20F400304349886406F014
:10904000E7FD4148806C00F4002048B94D480078A5
:1090500078B13D48806C40F400203B49886408E0CA
:109060004848007828B93848806C20F400203649F8
:1090700088643548006C00F48030D8B93248806D7F
:1090800041F28831884204D83F48C0683F4988424D
:1090900009D92D48006C40F480302B490864012028
:1090A0003B49087012E02848006C20F480302649C3
:1090B00008640BE02448806D41F28831884205D273
:1090C0002148006C20F480301F4908643048007843
:1090D00048B12F48807830B11B48806C40F48070D4
:1090E0001949886405E01848806C20F4807016499E
:1090F000886428480078E8B91348806C26490840FD
:10910000A0B91148B0F8440000F4004070B92348F9
:109110000078401CC0B22149087006280DDD0120EE
:109120001C49087000201D49087006E000201B49FA
:10913000087002E000201949087000BF4FE60000E7
:10914000BB01002074100020E00300204C00002030
:1091500048000020760200207502002070010020E7
:10916000770200207101002078ECFFFF78020020D8
:109170004000002044000020790200207A020020F4
:10918000FB010020FF0100209808002000EC5E0099
:10919000D8080020FA0100201F000F007B020020E9
:1091A000704700002DE9F041074600BF0026384611
:1091B00008F098FF1248006804F0E0FC4FF4BA7120
:1091C00000FB01F515B1B5F5A03F02D90020BDE8BF
:1091D000F081002407E00B490968081902F062FBDE
:1091E000304486B2641CAC42F5D307480068FBF7F4
:1091F000A1FDB04201D10120E9E70020E7E700002E
:10920000B4000020B8000020B000002070B5044673
:109210000E461546284608F065FF214604480068BA
:1092200002F0ECFC31460348006802F0E7FC70BD38
:10923000B4000020B000002010B504466E4800784D
:1092400000B110BD6D4A9188106803F09AFA0028A9
:1092500049D16B480078401C69490870084600787D
:10926000032814DD08460078142810DC0120654925
:1092700008706548806C20F0800063498864002095
:1092800062490870624908706249087080E05C4871
:109290000078142816DD5A4800781E2812DC0120B8
:1092A0005D4908705B4908705748806C40F0800049
:1092B000554988640120554908700121022005F0B4
:1092C00075FC65E04E4800781E2861DD012050499C
:1092D0000870504908703420494908700121022063
:1092E00005F064FC54E000204549087045480078CA
:1092F00080B30020434908704348B0F8440000F4AC
:109300008060B0F5806F26D144480088401C4349F6
:10931000088008460088012801D14149087040486A
:109320000078B8B13D48008802281BD13D4800882C
:10933000322817DA01203C4908703348C06B40F4EA
:1093400000703149C86300203549087033490880EE
:109350003449088006E00020314908702F49088010
:10936000304908802E48007878B12E480088401C8B
:109370002C49088008460088642809DD0020088000
:10938000274908702549088002E000202549088007
:109390001F48007828B11C48806C40F080001A49B2
:1093A0008864194890F8480000F0800080281DD19A
:1093B00001201E49087015480078D0B91C48008863
:1093C000401C80B21A49088040F6B831884210DD4E
:1093D0000D48806C20F080000B49886400201549FE
:1093E00008700C4908701249088002E000201049FA
:1093F000088000BF25E70000BB0100201801002005
:10940000AE020020AB020020E0030020B6020020E4
:109410000E020020B8030020AC020020B40200209D
:10942000AD020020B2020020D50100200102002080
:10943000B00200201203002070B505460024F84851
:10944000007800B170BDF748007828B1F548007881
:10945000401EF449087002E02846FFF7A1FEF248DA
:10946000007800284ED0F148007800284AD1F04812
:109470000078002846D1EF48806C002842D1EE48A1
:10948000007800283ED1ED48007800283AD1EC4819
:109490000078B0BBEB48007898BBEB48007880BB05
:1094A000EA48007868BBEA48007850BBE948007891
:1094B00038BBE948007820BBE848007808BBE8489A
:1094C0000078F0B9E7480078D8B9E7480078C0B923
:1094D000E6480078A8B9E648007890B9E5480078F1
:1094E00078B9E548007860B9E448007848B9E448BC
:1094F000007830B9CF48C06B20F04000CD49C86338
:1095000012E0FFE7CB48B0F85000022806D1C94866
:10951000C06B20F04000C749C86305E0C548C06B78
:1095200040F04000C349C863BF48007898B3BF48C3
:10953000007880BBBE48007868BBBE48806C50BBDA
:10954000D048007838BBD048007820BBCF4800789E
:1095500008BBCF480078F0B9CE480078D8B9CE48DB
:109560000078C0B9CD480078A8B9CD48007890B946
:10957000CC48007878B9BE48007860B9BD4800781A
:1095800048B9BF48007830B9AA48C06B20F08000C5
:10959000A849C86312E0FFE7A648B0F850000128C8
:1095A00006D1A448C06B20F08000A249C86305E042
:1095B000A048C06B40F080009E49C8639D4890F869
:1095C0003C0000F04000402802D124F0010401E0FA
:1095D00044F00104974890F83C0000F08000802897
:1095E00002D124F0020401E044F00204AE48007805
:1095F000844206D0204606F05BFB0020AB49087091
:109600000CE0AA480078401CC0B2A849087009289C
:1096100004DD00200870204606F04AFBA2480470D2
:10962000A048007800287AD0A148007828B9A1483D
:10963000007810B901209E4908709E4800780028E3
:1096400074D101209C4908709C480088401C9B49AB
:1096500008809B4801780078401C994A10700129C5
:1096600064DD02201146087094480088022816DD47
:1096700092480088052812DA6E480068B0F5FA6F43
:1096800054D2002008708D49088001208949087053
:1096900000208949087001208A49087046E08748FF
:1096A00000880A2813DA6348006841F2883188424A
:1096B0003CD90020824908708049088001207D49FA
:1096C000087000207C49087006F0A2FA2EE07B4862
:1096D00000880F2812DA57480068B0F5FA5F25D3E2
:1096E0000020774908707549088001207149087089
:1096F00000207149087006F08BFA17E000207049CD
:1097000008706E49088001206A49087000206A4983
:1097100008706C49087006F07BFA07E0FFE700204C
:109720006449087064490870644908803E480078BC
:10973000F0B33E480078D8BB3D480078C0BB3D48F8
:10974000806CA8BB3C48007890BB3C48007878BB54
:109750003B48007860BB3B48007848BB3A480078FB
:1097600030BB3A48007818BB3948007800BB39480C
:109770000078E8B93B480078D0B93C480078B8B9DF
:109780003B480078A0B93B48007888B93C4800784D
:1097900070B93348007810B92F48007810B14A48A2
:1097A000007850B13048007838B93348007800E08C
:1097B00012E088B14548007870B93048007858B94F
:1097C000434A9188106802F0F0FF1A48C06B40F0DD
:1097D00010001849C86319E03748007858B13C4A6E
:1097E0009188106802F0E1FF1248C06B40F0100051
:1097F0001049C8630AE0364A9188106802F0D3FF26
:109800000C48C06B20F010000A49C8632A48007851
:1098100028B1304A9188106802F0C7FF6DE05BE024
:10982000BB010020B9020020FA0100200102002043
:10983000F9010020E0030020EA010020E9010020F6
:10984000E7010020E5010020E3010020DF01002006
:10985000DB010020E0010020F4010020F0010020E5
:10986000F20100200B0200200D020020FB0100206D
:10987000FF01002000020020050200200802002055
:1098800010020020EF010020ED010020F701002070
:10989000E2010020DD0100200C020020FC0100207C
:1098A000FE010020FD010020BA020020BB020020C2
:1098B000D8010020BE02002003020020BC020020CC
:1098C000C002002004020020BD010020060200208A
:1098D000F0000020F8000020094A9188106802F08A
:1098E00059FF28B1074A9188106802F05EFF04E032
:1098F000044A9188106802F056FF00BFA2E50000FC
:10990000F0000020F80000205949097801B17047A3
:109910005849496843F2B06291422CD95549896A45
:10992000002928DB5349896A41F28832914222DAC0
:1099300051490978F9B151490A780978491C4F4BC6
:109940001970142A36DD4E49097871B94D490978E4
:1099500059B901214B4A117000214B4A11804549E8
:10996000C96B41F00401434AD1630021474A117099
:10997000424A11701EE00021404A117041490978A5
:1099800039B142490978491CC9B2404A11700529C8
:1099900002DC3C49097869B900213A4A11703A4A17
:1099A00011803449C96B21F00401324AD16300218E
:1099B000364A11703349097881B133490988491C05
:1099C00089B2314A11800A290BDB00212D4A11701E
:1099D0002D4A118001212A4A117002E000212A4AF1
:1099E00011802B49097829B92A49097811B92A49DE
:1099F0000978A9B11F49B1F85010022910D00121EE
:109A0000264A117000211F4A11701F4A118004213B
:109A1000184AA2F850101146C96B21F00401D16315
:109A20001449B1F85010022908D01C49097891B1A5
:109A30001B49098840F6055291420CDA0021174A69
:109A40001170104A1170104A11800A49C96B21F037
:109A50000401084AD16312490988124AD28E914200
:109A600004DA0021064A11700F4A117000BF4EE758
:109A7000BB010020E003002070010020A6020020AE
:109A800007020020EB010020A8020020AA0200200B
:109A9000E7010020E5010020E3010020EA010020A9
:109AA000400000208C07002008020020002002490E
:109AB00008810249088070473C0C00206C0000209F
:109AC00010B500F001F810BD00B5A3B000204B495F
:109AD00008808870C870087148718871C871012049
